{
  "contractName": "ICOToken",
  "abi": [
    {
      "constant": true,
      "inputs": [],
      "name": "owner",
      "outputs": [
        {
          "name": "",
          "type": "address"
        }
      ],
      "payable": false,
      "stateMutability": "view",
      "type": "function"
    },
    {
      "inputs": [
        {
          "name": "_n",
          "type": "string"
        },
        {
          "name": "_s",
          "type": "string"
        },
        {
          "name": "_d",
          "type": "uint8"
        },
        {
          "name": "_initialSupply",
          "type": "uint256"
        },
        {
          "name": "_ratio",
          "type": "uint256"
        }
      ],
      "payable": false,
      "stateMutability": "nonpayable",
      "type": "constructor"
    },
    {
      "payable": true,
      "stateMutability": "payable",
      "type": "fallback"
    },
    {
      "anonymous": false,
      "inputs": [
        {
          "indexed": true,
          "name": "_from",
          "type": "address"
        },
        {
          "indexed": true,
          "name": "_to",
          "type": "address"
        },
        {
          "indexed": false,
          "name": "_value",
          "type": "uint256"
        }
      ],
      "name": "OnTokensTransfered",
      "type": "event"
    },
    {
      "anonymous": false,
      "inputs": [
        {
          "indexed": false,
          "name": "_from",
          "type": "address"
        },
        {
          "indexed": false,
          "name": "_eth",
          "type": "uint256"
        },
        {
          "indexed": false,
          "name": "_tokens",
          "type": "uint256"
        }
      ],
      "name": "OnFundsReceived",
      "type": "event"
    },
    {
      "anonymous": false,
      "inputs": [
        {
          "indexed": false,
          "name": "_balance",
          "type": "uint256"
        }
      ],
      "name": "OnFundsRemoved",
      "type": "event"
    },
    {
      "constant": true,
      "inputs": [],
      "name": "name",
      "outputs": [
        {
          "name": "",
          "type": "string"
        }
      ],
      "payable": false,
      "stateMutability": "view",
      "type": "function"
    },
    {
      "constant": true,
      "inputs": [],
      "name": "symbol",
      "outputs": [
        {
          "name": "",
          "type": "string"
        }
      ],
      "payable": false,
      "stateMutability": "view",
      "type": "function"
    },
    {
      "constant": true,
      "inputs": [],
      "name": "decimals",
      "outputs": [
        {
          "name": "",
          "type": "uint8"
        }
      ],
      "payable": false,
      "stateMutability": "view",
      "type": "function"
    },
    {
      "constant": true,
      "inputs": [],
      "name": "totalSupply",
      "outputs": [
        {
          "name": "",
          "type": "uint256"
        }
      ],
      "payable": false,
      "stateMutability": "view",
      "type": "function"
    },
    {
      "constant": true,
      "inputs": [],
      "name": "convertRatio",
      "outputs": [
        {
          "name": "",
          "type": "uint256"
        }
      ],
      "payable": false,
      "stateMutability": "view",
      "type": "function"
    },
    {
      "constant": true,
      "inputs": [
        {
          "name": "_addr",
          "type": "address"
        }
      ],
      "name": "balanceOf",
      "outputs": [
        {
          "name": "",
          "type": "uint256"
        }
      ],
      "payable": false,
      "stateMutability": "view",
      "type": "function"
    },
    {
      "constant": false,
      "inputs": [
        {
          "name": "_from",
          "type": "address"
        },
        {
          "name": "_to",
          "type": "address"
        },
        {
          "name": "_value",
          "type": "uint256"
        }
      ],
      "name": "sendTokens",
      "outputs": [
        {
          "name": "",
          "type": "uint256"
        }
      ],
      "payable": false,
      "stateMutability": "nonpayable",
      "type": "function"
    },
    {
      "constant": true,
      "inputs": [
        {
          "name": "_value",
          "type": "uint256"
        }
      ],
      "name": "convert",
      "outputs": [
        {
          "name": "",
          "type": "uint256"
        }
      ],
      "payable": false,
      "stateMutability": "view",
      "type": "function"
    },
    {
      "constant": false,
      "inputs": [],
      "name": "removeFunds",
      "outputs": [],
      "payable": false,
      "stateMutability": "nonpayable",
      "type": "function"
    }
  ],
  "bytecode": "0x6060604052341561000f57600080fd5b604051610c7a380380610c7a83398101604052808051820191906020018051820191906020018051906020019091908051906020019091908051906020019091905050336000806101000a81548173ffffffffffffffffffffffffffffffffffffffff021916908373ffffffffffffffffffffffffffffffffffffffff16021790555084600190805190602001906100a892919061016f565b5083600290805190602001906100bf92919061016f565b5082600360006101000a81548160ff021916908360ff16021790555081600660008060009054906101000a900473ffffffffffffffffffffffffffffffffffffffff1673ffffffffffffffffffffffffffffffffffffffff1673ffffffffffffffffffffffffffffffffffffffff1681526020019081526020016000208190555080600481905550600360009054906101000a900460ff1660ff16600a0a82026005819055505050505050610214565b828054600181600116156101000203166002900490600052602060002090601f016020900481019282601f106101b057805160ff19168380011785556101de565b828001600101855582156101de579182015b828111156101dd5782518255916020019190600101906101c2565b5b5090506101eb91906101ef565b5090565b61021191905b8082111561020d5760008160009055506001016101f5565b5090565b90565b610a57806102236000396000f3006060604052600436106100a4576000357c0100000000000000000000000000000000000000000000000000000000900463ffffffff16806306fdde031461014057806318160ddd146101ce578063313ce567146101f757806370a08231146102265780638da5cb5b1461027357806395d89b41146102c8578063a3908e1b14610356578063baf2c2791461038d578063e6d66ac8146103b6578063feac51f51461042b575b600080341115156100b457600080fd5b6100bd34610440565b90506100c9338261044e565b507ff237556eb2611f4a0d74784e3b0bb3bbaf6bebf023a045bf8e78bd5d5f0c8972333483604051808473ffffffffffffffffffffffffffffffffffffffff1673ffffffffffffffffffffffffffffffffffffffff168152602001838152602001828152602001935050505060405180910390a150005b341561014b57600080fd5b610153610484565b6040518080602001828103825283818151815260200191508051906020019080838360005b83811015610193578082015181840152602081019050610178565b50505050905090810190601f1680156101c05780820380516001836020036101000a031916815260200191505b509250505060405180910390f35b34156101d957600080fd5b6101e161052c565b6040518082815260200191505060405180910390f35b341561020257600080fd5b61020a610536565b604051808260ff1660ff16815260200191505060405180910390f35b341561023157600080fd5b61025d600480803573ffffffffffffffffffffffffffffffffffffffff1690602001909190505061054d565b6040518082815260200191505060405180910390f35b341561027e57600080fd5b610286610596565b604051808273ffffffffffffffffffffffffffffffffffffffff1673ffffffffffffffffffffffffffffffffffffffff16815260200191505060405180910390f35b34156102d357600080fd5b6102db6105bf565b6040518080602001828103825283818151815260200191508051906020019080838360005b8381101561031b578082015181840152602081019050610300565b50505050905090810190601f1680156103485780820380516001836020036101000a031916815260200191505b509250505060405180910390f35b341561036157600080fd5b6103776004808035906020019091905050610440565b6040518082815260200191505060405180910390f35b341561039857600080fd5b6103a0610667565b6040518082815260200191505060405180910390f35b34156103c157600080fd5b610415600480803573ffffffffffffffffffffffffffffffffffffffff1690602001909190803573ffffffffffffffffffffffffffffffffffffffff16906020019091908035906020019091905050610671565b6040518082815260200191505060405180910390f35b341561043657600080fd5b61043e6106dd565b005b600060045482029050919050565b600061047c6000809054906101000a900473ffffffffffffffffffffffffffffffffffffffff168484610861565b905092915050565b61048c610a17565b60018054600181600116156101000203166002900480601f0160208091040260200160405190810160405280929190818152602001828054600181600116156101000203166002900480156105225780601f106104f757610100808354040283529160200191610522565b820191906000526020600020905b81548152906001019060200180831161050557829003601f168201915b5050505050905090565b6000600554905090565b6000600360009054906101000a900460ff16905090565b6000600660008373ffffffffffffffffffffffffffffffffffffffff1673ffffffffffffffffffffffffffffffffffffffff168152602001908152602001600020549050919050565b60008060009054906101000a900473ffffffffffffffffffffffffffffffffffffffff16905090565b6105c7610a17565b60028054600181600116156101000203166002900480601f01602080910402602001604051908101604052809291908181526020018280546001816001161561010002031660029004801561065d5780601f106106325761010080835404028352916020019161065d565b820191906000526020600020905b81548152906001019060200180831161064057829003601f168201915b5050505050905090565b6000600454905090565b60008060009054906101000a900473ffffffffffffffffffffffffffffffffffffffff1673ffffffffffffffffffffffffffffffffffffffff163373ffffffffffffffffffffffffffffffffffffffff1614156106d6576106d3848484610861565b90505b9392505050565b6000809054906101000a900473ffffffffffffffffffffffffffffffffffffffff1673ffffffffffffffffffffffffffffffffffffffff163373ffffffffffffffffffffffffffffffffffffffff16141561085f576000600660008060009054906101000a900473ffffffffffffffffffffffffffffffffffffffff1673ffffffffffffffffffffffffffffffffffffffff1673ffffffffffffffffffffffffffffffffffffffff168152602001908152602001600020819055506000809054906101000a900473ffffffffffffffffffffffffffffffffffffffff1673ffffffffffffffffffffffffffffffffffffffff166108fc3073ffffffffffffffffffffffffffffffffffffffff16319081150290604051600060405180830381858888f19350505050151561081057600080fd5b7f833bb8f2f47dd33ce1c8da936fb158a00c66a7f57b3ed16f054e9f3bb6e60d783073ffffffffffffffffffffffffffffffffffffffff16316040518082815260200191505060405180910390a15b565b6000808373ffffffffffffffffffffffffffffffffffffffff16141580156108b557508273ffffffffffffffffffffffffffffffffffffffff168473ffffffffffffffffffffffffffffffffffffffff1614155b15156108c057600080fd5b81600660008673ffffffffffffffffffffffffffffffffffffffff1673ffffffffffffffffffffffffffffffffffffffff168152602001908152602001600020541015151561090e57600080fd5b81600660008673ffffffffffffffffffffffffffffffffffffffff1673ffffffffffffffffffffffffffffffffffffffff1681526020019081526020016000206000828254039250508190555081600660008573ffffffffffffffffffffffffffffffffffffffff1673ffffffffffffffffffffffffffffffffffffffff168152602001908152602001600020600082825401925050819055508273ffffffffffffffffffffffffffffffffffffffff168473ffffffffffffffffffffffffffffffffffffffff167f3e17400f2b999181d4145593666ede04fe102fed6cf79eb7f9a1ca5c1fa1e65d846040518082815260200191505060405180910390a38190509392505050565b6020604051908101604052806000815250905600a165627a7a7230582078c003d217412b14d1db0a20a67f603605cc7d87c928664aac197b61d2005d5c0029",
  "source": "pragma solidity ^0.4.19;\n\nimport './Owned.sol';\n\ncontract ICOToken is Owned {\n\n  string _name;\n  string _symbol;\n  uint8 _decimals;\n\n  uint256 _convertRatio;\n  uint256 _totalSupply;\n\n  mapping (address => uint256) _balances;\n\n  event OnTokensTransfered(address indexed _from, address indexed _to, uint256 _value);\n\n  event OnFundsReceived(address _from, uint256 _eth, uint256 _tokens);\n  event OnFundsRemoved(uint256 _balance);\n\n  function ICOToken(string _n, string _s, uint8 _d, uint256 _initialSupply, uint256 _ratio) public {\n    _name = _n;\n    _symbol = _s;\n    _decimals = _d;\n    _balances[_owner] = _initialSupply;\n    _convertRatio = _ratio;\n    _totalSupply = _initialSupply * (10 ** uint256(_decimals));\n  }\n\n  function name() public constant returns (string) { return _name; }\n  function symbol() public constant returns (string) { return _symbol; }\n  function decimals() public constant returns (uint8) { return _decimals; }\n  function totalSupply() public constant returns (uint256) { return _totalSupply; }\n  function convertRatio() public constant returns (uint256) { return _convertRatio; }\n  function balanceOf(address _addr) public view returns (uint256) { return _balances[_addr]; }\n\n  function _transferTokens(address _from, address _to, uint256 _value) internal returns (uint256) {\n    require(_to != 0x0 && _from != _to);\n    require(_balances[_from] >= _value);\n    _balances[_from] -= _value;\n    _balances[_to] += _value;\n    OnTokensTransfered(_from, _to, _value);\n    return _value;\n  }\n\n  function sendTokens(address _from, address _to, uint256 _value) public restricted returns (uint256) {\n    return _transferTokens(_from, _to, _value);\n  }\n\n  function sendTokensFromOwner(address _to, uint256 _value) internal returns (uint256) {\n    return _transferTokens(_owner, _to, _value);\n  }\n\n  function convert(uint256 _value) public view returns (uint256) { return _value * _convertRatio; }\n\n  function removeFunds() public restricted {\n    _balances[_owner] = 0;\n    _owner.transfer(this.balance);\n    OnFundsRemoved(this.balance);\n  }\n\n  modifier tradable() {\n    require(msg.value > 0);\n    uint256 value = convert(msg.value);\n    sendTokensFromOwner(msg.sender, value);\n    OnFundsReceived(msg.sender, msg.value, value);\n    _;\n  }\n\n  function () public tradable payable {}\n\n}\n",
  "sourcePath": "/home/brice/ico-random-lottery-token/contracts/ICOToken.sol",
  "compiler": {
    "name": "solc",
    "version": "0.4.19+commit.c4cbbb05.Emscripten.clang"
  },
  "schemaVersion": "2.0.0",
  "updatedAt": "2018-03-08T13:25:10.777Z"
}