{
  "contractName": "ICOToken",
  "abi": [
    {
      "constant": true,
      "inputs": [],
      "name": "owner",
      "outputs": [
        {
          "name": "",
          "type": "address"
        }
      ],
      "payable": false,
      "stateMutability": "view",
      "type": "function"
    },
    {
      "inputs": [
        {
          "name": "_n",
          "type": "string"
        },
        {
          "name": "_s",
          "type": "string"
        },
        {
          "name": "_d",
          "type": "uint8"
        },
        {
          "name": "_initialSupply",
          "type": "uint256"
        },
        {
          "name": "_ratio",
          "type": "uint256"
        }
      ],
      "payable": false,
      "stateMutability": "nonpayable",
      "type": "constructor"
    },
    {
      "payable": true,
      "stateMutability": "payable",
      "type": "fallback"
    },
    {
      "anonymous": false,
      "inputs": [
        {
          "indexed": true,
          "name": "_from",
          "type": "address"
        },
        {
          "indexed": true,
          "name": "_to",
          "type": "address"
        },
        {
          "indexed": false,
          "name": "_value",
          "type": "uint256"
        }
      ],
      "name": "OnTokensTransfered",
      "type": "event"
    },
    {
      "anonymous": false,
      "inputs": [
        {
          "indexed": false,
          "name": "_from",
          "type": "address"
        },
        {
          "indexed": false,
          "name": "_eth",
          "type": "uint256"
        },
        {
          "indexed": false,
          "name": "_tokens",
          "type": "uint256"
        }
      ],
      "name": "OnFundsReceived",
      "type": "event"
    },
    {
      "anonymous": false,
      "inputs": [
        {
          "indexed": false,
          "name": "_from",
          "type": "address"
        },
        {
          "indexed": false,
          "name": "_balance",
          "type": "uint256"
        }
      ],
      "name": "OnFundsTransfered",
      "type": "event"
    },
    {
      "constant": true,
      "inputs": [],
      "name": "name",
      "outputs": [
        {
          "name": "",
          "type": "string"
        }
      ],
      "payable": false,
      "stateMutability": "view",
      "type": "function"
    },
    {
      "constant": true,
      "inputs": [],
      "name": "symbol",
      "outputs": [
        {
          "name": "",
          "type": "string"
        }
      ],
      "payable": false,
      "stateMutability": "view",
      "type": "function"
    },
    {
      "constant": true,
      "inputs": [],
      "name": "decimals",
      "outputs": [
        {
          "name": "",
          "type": "uint8"
        }
      ],
      "payable": false,
      "stateMutability": "view",
      "type": "function"
    },
    {
      "constant": true,
      "inputs": [],
      "name": "totalSupply",
      "outputs": [
        {
          "name": "",
          "type": "uint256"
        }
      ],
      "payable": false,
      "stateMutability": "view",
      "type": "function"
    },
    {
      "constant": true,
      "inputs": [],
      "name": "convertRatio",
      "outputs": [
        {
          "name": "",
          "type": "uint256"
        }
      ],
      "payable": false,
      "stateMutability": "view",
      "type": "function"
    },
    {
      "constant": true,
      "inputs": [
        {
          "name": "_addr",
          "type": "address"
        }
      ],
      "name": "balanceOf",
      "outputs": [
        {
          "name": "",
          "type": "uint256"
        }
      ],
      "payable": false,
      "stateMutability": "view",
      "type": "function"
    },
    {
      "constant": false,
      "inputs": [
        {
          "name": "_from",
          "type": "address"
        },
        {
          "name": "_to",
          "type": "address"
        },
        {
          "name": "_value",
          "type": "uint256"
        }
      ],
      "name": "sendTokens",
      "outputs": [
        {
          "name": "",
          "type": "uint256"
        },
        {
          "name": "",
          "type": "uint256"
        },
        {
          "name": "",
          "type": "uint256"
        }
      ],
      "payable": false,
      "stateMutability": "nonpayable",
      "type": "function"
    },
    {
      "constant": true,
      "inputs": [
        {
          "name": "_value",
          "type": "uint256"
        }
      ],
      "name": "convert",
      "outputs": [
        {
          "name": "",
          "type": "uint256"
        }
      ],
      "payable": false,
      "stateMutability": "view",
      "type": "function"
    },
    {
      "constant": false,
      "inputs": [],
      "name": "transferBalance",
      "outputs": [],
      "payable": false,
      "stateMutability": "nonpayable",
      "type": "function"
    }
  ],
  "bytecode": "0x6060604052341561000f57600080fd5b604051610d16380380610d1683398101604052808051820191906020018051820191906020018051906020019091908051906020019091908051906020019091905050336000806101000a81548173ffffffffffffffffffffffffffffffffffffffff021916908373ffffffffffffffffffffffffffffffffffffffff16021790555084600190805190602001906100a892919061016f565b5083600290805190602001906100bf92919061016f565b5082600360006101000a81548160ff021916908360ff16021790555081600660008060009054906101000a900473ffffffffffffffffffffffffffffffffffffffff1673ffffffffffffffffffffffffffffffffffffffff1673ffffffffffffffffffffffffffffffffffffffff1681526020019081526020016000208190555080600481905550600360009054906101000a900460ff1660ff16600a0a82026005819055505050505050610214565b828054600181600116156101000203166002900490600052602060002090601f016020900481019282601f106101b057805160ff19168380011785556101de565b828001600101855582156101de579182015b828111156101dd5782518255916020019190600101906101c2565b5b5090506101eb91906101ef565b5090565b61021191905b8082111561020d5760008160009055506001016101f5565b5090565b90565b610af3806102236000396000f3006060604052600436106100a4576000357c0100000000000000000000000000000000000000000000000000000000900463ffffffff16806306fdde031461014257806318160ddd146101d0578063313ce567146101f957806366adeb8c1461022857806370a082311461023d5780638da5cb5b1461028a57806395d89b41146102df578063a3908e1b1461036d578063baf2c279146103a4578063e6d66ac8146103cd575b600080341115156100b457600080fd5b6100bd34610450565b90506100c9338261045e565b5050507ff237556eb2611f4a0d74784e3b0bb3bbaf6bebf023a045bf8e78bd5d5f0c8972333483604051808473ffffffffffffffffffffffffffffffffffffffff1673ffffffffffffffffffffffffffffffffffffffff168152602001838152602001828152602001935050505060405180910390a150005b341561014d57600080fd5b61015561049c565b6040518080602001828103825283818151815260200191508051906020019080838360005b8381101561019557808201518184015260208101905061017a565b50505050905090810190601f1680156101c25780820380516001836020036101000a031916815260200191505b509250505060405180910390f35b34156101db57600080fd5b6101e3610544565b6040518082815260200191505060405180910390f35b341561020457600080fd5b61020c61054e565b604051808260ff1660ff16815260200191505060405180910390f35b341561023357600080fd5b61023b610565565b005b341561024857600080fd5b610274600480803573ffffffffffffffffffffffffffffffffffffffff169060200190919050506106d8565b6040518082815260200191505060405180910390f35b341561029557600080fd5b61029d610721565b604051808273ffffffffffffffffffffffffffffffffffffffff1673ffffffffffffffffffffffffffffffffffffffff16815260200191505060405180910390f35b34156102ea57600080fd5b6102f261074a565b6040518080602001828103825283818151815260200191508051906020019080838360005b83811015610332578082015181840152602081019050610317565b50505050905090810190601f16801561035f5780820380516001836020036101000a031916815260200191505b509250505060405180910390f35b341561037857600080fd5b61038e6004808035906020019091905050610450565b6040518082815260200191505060405180910390f35b34156103af57600080fd5b6103b76107f2565b6040518082815260200191505060405180910390f35b34156103d857600080fd5b61042c600480803573ffffffffffffffffffffffffffffffffffffffff1690602001909190803573ffffffffffffffffffffffffffffffffffffffff169060200190919080359060200190919050506107fc565b60405180848152602001838152602001828152602001935050505060405180910390f35b600060045482029050919050565b600080600061048f6000809054906101000a900473ffffffffffffffffffffffffffffffffffffffff168686610871565b9250925092509250925092565b6104a4610ab3565b60018054600181600116156101000203166002900480601f01602080910402602001604051908101604052809291908181526020018280546001816001161561010002031660029004801561053a5780601f1061050f5761010080835404028352916020019161053a565b820191906000526020600020905b81548152906001019060200180831161051d57829003601f168201915b5050505050905090565b6000600554905090565b6000600360009054906101000a900460ff16905090565b6000809054906101000a900473ffffffffffffffffffffffffffffffffffffffff1673ffffffffffffffffffffffffffffffffffffffff163373ffffffffffffffffffffffffffffffffffffffff1614156106d6576000809054906101000a900473ffffffffffffffffffffffffffffffffffffffff1673ffffffffffffffffffffffffffffffffffffffff166108fc3073ffffffffffffffffffffffffffffffffffffffff16319081150290604051600060405180830381858888f19350505050151561063257600080fd5b7fa57e0e293b767f27b6a3f4273eba7fed5d1346568830e0e0637f8ba5757ddb7b6000809054906101000a900473ffffffffffffffffffffffffffffffffffffffff163073ffffffffffffffffffffffffffffffffffffffff1631604051808373ffffffffffffffffffffffffffffffffffffffff1673ffffffffffffffffffffffffffffffffffffffff1681526020018281526020019250505060405180910390a15b565b6000600660008373ffffffffffffffffffffffffffffffffffffffff1673ffffffffffffffffffffffffffffffffffffffff168152602001908152602001600020549050919050565b60008060009054906101000a900473ffffffffffffffffffffffffffffffffffffffff16905090565b610752610ab3565b60028054600181600116156101000203166002900480601f0160208091040260200160405190810160405280929190818152602001828054600181600116156101000203166002900480156107e85780601f106107bd576101008083540402835291602001916107e8565b820191906000526020600020905b8154815290600101906020018083116107cb57829003601f168201915b5050505050905090565b6000600454905090565b60008060008060009054906101000a900473ffffffffffffffffffffffffffffffffffffffff1673ffffffffffffffffffffffffffffffffffffffff163373ffffffffffffffffffffffffffffffffffffffff16141561086857610861868686610871565b9250925092505b93509350939050565b6000806000808573ffffffffffffffffffffffffffffffffffffffff161415151561089b57600080fd5b8473ffffffffffffffffffffffffffffffffffffffff168673ffffffffffffffffffffffffffffffffffffffff16141515156108d657600080fd5b83600660008873ffffffffffffffffffffffffffffffffffffffff1673ffffffffffffffffffffffffffffffffffffffff168152602001908152602001600020541015151561092457600080fd5b83600660008873ffffffffffffffffffffffffffffffffffffffff1673ffffffffffffffffffffffffffffffffffffffff1681526020019081526020016000206000828254039250508190555083600660008773ffffffffffffffffffffffffffffffffffffffff1673ffffffffffffffffffffffffffffffffffffffff168152602001908152602001600020600082825401925050819055508473ffffffffffffffffffffffffffffffffffffffff168673ffffffffffffffffffffffffffffffffffffffff167f3e17400f2b999181d4145593666ede04fe102fed6cf79eb7f9a1ca5c1fa1e65d866040518082815260200191505060405180910390a383600660008873ffffffffffffffffffffffffffffffffffffffff1673ffffffffffffffffffffffffffffffffffffffff16815260200190815260200160002054600660008873ffffffffffffffffffffffffffffffffffffffff1673ffffffffffffffffffffffffffffffffffffffff1681526020019081526020016000205492509250925093509350939050565b6020604051908101604052806000815250905600a165627a7a72305820e5da16c4cda04e5456aff388944bf820a6952500f88d5d1c8fe055e85ecd44670029",
  "source": "pragma solidity ^0.4.19;\n\nimport './Owned.sol';\n\n// common token which is owned\ncontract ICOToken is Owned {\n\n  // token common attributes\n  string _name;\n  string _symbol;\n  uint8 _decimals;\n\n  // ETH => RLT ratio\n  uint256 _convertRatio;\n\n  // total tokens generated (user view)\n  uint256 _totalSupply;\n\n  // tokens balances\n  mapping (address => uint256) _balances;\n\n  // events\n  event OnTokensTransfered(address indexed _from, address indexed _to, uint256 _value);\n  event OnFundsReceived(address _from, uint256 _eth, uint256 _tokens);\n  event OnFundsTransfered(address _from, uint256 _balance);\n\n  function ICOToken(string _n, string _s, uint8 _d, uint256 _initialSupply, uint256 _ratio) public {\n    _name = _n;\n    _symbol = _s;\n    _decimals = _d;\n    _balances[_owner] = _initialSupply;\n    _convertRatio = _ratio;\n    _totalSupply = _initialSupply * (10 ** uint256(_decimals));\n  }\n\n  // getters\n  function name() public constant returns (string) { return _name; }\n  function symbol() public constant returns (string) { return _symbol; }\n  function decimals() public constant returns (uint8) { return _decimals; }\n  function totalSupply() public constant returns (uint256) { return _totalSupply; }\n  function convertRatio() public constant returns (uint256) { return _convertRatio; }\n  function balanceOf(address _addr) public view returns (uint256) { return _balances[_addr]; }\n\n  // transfer RLT tokens from an account to another one\n  // returns the transfered tokens, the new sender balance and the new receiver balance\n  function _transferTokens(address _from, address _to, uint256 _value)\n    internal returns (uint256, uint256, uint256) {\n    // common checks\n    require(_to != 0x0);\n    require(_from != _to);\n    require(_balances[_from] >= _value);\n    // move tokens between accounts\n    _balances[_from] -= _value;\n    _balances[_to] += _value;\n    OnTokensTransfered(_from, _to, _value);\n    return (_value, _balances[_from], _balances[_to]);\n  }\n\n  // restricted function to send tokens between accounts\n  function sendTokens(address _from, address _to, uint256 _value)\n    public restricted returns (uint256, uint256, uint256) {\n    return _transferTokens(_from, _to, _value);\n  }\n\n  // internal function to send tokens from the owner to another account\n  function sendTokensFromOwner(address _to, uint256 _value)\n    internal returns (uint256, uint256, uint256) {\n    return _transferTokens(_owner, _to, _value);\n  }\n\n  // convert ETH to RLT\n  function convert(uint256 _value) public view returns (uint256) { return _value * _convertRatio; }\n\n  function transferBalance() public restricted {\n    _owner.transfer(this.balance);\n    OnFundsTransfered(_owner, this.balance);\n  }\n\n  // modifier that gives RLT in exchange of ETH when receivig funds\n  modifier tradable() {\n    // cannot trade 0 ETH\n    require(msg.value > 0);\n    // RLT value here\n    uint256 value = convert(msg.value);\n    sendTokensFromOwner(msg.sender, value);\n    OnFundsReceived(msg.sender, msg.value, value);\n    _;\n  }\n\n  // explicit asking we need to be able to receive funds in ETH\n  // calling our tradable modifier to give RLT based on ETH received\n  function () public payable tradable {}\n\n}\n",
  "sourcePath": "/home/brice/ico-random-lottery-token/contracts/ICOToken.sol",
  "compiler": {
    "name": "solc",
    "version": "0.4.19+commit.c4cbbb05.Emscripten.clang"
  },
  "schemaVersion": "2.0.0",
  "updatedAt": "2018-03-08T19:01:17.854Z"
}