{
  "contractName": "ICOToken",
  "abi": [
    {
      "constant": true,
      "inputs": [],
      "name": "_liveDuration",
      "outputs": [
        {
          "name": "",
          "type": "uint256"
        }
      ],
      "payable": false,
      "stateMutability": "view",
      "type": "function"
    },
    {
      "constant": true,
      "inputs": [],
      "name": "_startedAt",
      "outputs": [
        {
          "name": "",
          "type": "uint256"
        }
      ],
      "payable": false,
      "stateMutability": "view",
      "type": "function"
    },
    {
      "constant": true,
      "inputs": [],
      "name": "owner",
      "outputs": [
        {
          "name": "",
          "type": "address"
        }
      ],
      "payable": false,
      "stateMutability": "view",
      "type": "function"
    },
    {
      "inputs": [
        {
          "name": "_tokenName",
          "type": "string"
        },
        {
          "name": "_tokenSymbol",
          "type": "string"
        },
        {
          "name": "_tokenDecimals",
          "type": "uint8"
        },
        {
          "name": "_initialSupply",
          "type": "uint256"
        },
        {
          "name": "_airdropSupply",
          "type": "uint256"
        },
        {
          "name": "_duration",
          "type": "uint256"
        },
        {
          "name": "_ratio",
          "type": "uint256"
        }
      ],
      "payable": false,
      "stateMutability": "nonpayable",
      "type": "constructor"
    },
    {
      "payable": true,
      "stateMutability": "payable",
      "type": "fallback"
    },
    {
      "anonymous": false,
      "inputs": [
        {
          "indexed": false,
          "name": "_message",
          "type": "string"
        }
      ],
      "name": "OnRequireFailed",
      "type": "event"
    },
    {
      "anonymous": false,
      "inputs": [
        {
          "indexed": true,
          "name": "_to",
          "type": "address"
        },
        {
          "indexed": false,
          "name": "_value",
          "type": "uint256"
        },
        {
          "indexed": false,
          "name": "_available",
          "type": "uint256"
        }
      ],
      "name": "OnTokensAirdropped",
      "type": "event"
    },
    {
      "anonymous": false,
      "inputs": [
        {
          "indexed": true,
          "name": "_from",
          "type": "address"
        },
        {
          "indexed": true,
          "name": "_to",
          "type": "address"
        },
        {
          "indexed": false,
          "name": "_value",
          "type": "uint256"
        }
      ],
      "name": "OnTokensTransfered",
      "type": "event"
    },
    {
      "anonymous": false,
      "inputs": [
        {
          "indexed": false,
          "name": "_from",
          "type": "address"
        },
        {
          "indexed": false,
          "name": "_eth",
          "type": "uint256"
        },
        {
          "indexed": false,
          "name": "_tokens",
          "type": "uint256"
        }
      ],
      "name": "OnFundsReceived",
      "type": "event"
    },
    {
      "anonymous": false,
      "inputs": [
        {
          "indexed": false,
          "name": "_from",
          "type": "address"
        },
        {
          "indexed": false,
          "name": "_balance",
          "type": "uint256"
        }
      ],
      "name": "OnFundsTransfered",
      "type": "event"
    },
    {
      "constant": true,
      "inputs": [],
      "name": "name",
      "outputs": [
        {
          "name": "",
          "type": "string"
        }
      ],
      "payable": false,
      "stateMutability": "view",
      "type": "function"
    },
    {
      "constant": true,
      "inputs": [],
      "name": "symbol",
      "outputs": [
        {
          "name": "",
          "type": "string"
        }
      ],
      "payable": false,
      "stateMutability": "view",
      "type": "function"
    },
    {
      "constant": true,
      "inputs": [],
      "name": "decimals",
      "outputs": [
        {
          "name": "",
          "type": "uint8"
        }
      ],
      "payable": false,
      "stateMutability": "view",
      "type": "function"
    },
    {
      "constant": true,
      "inputs": [],
      "name": "totalSupply",
      "outputs": [
        {
          "name": "",
          "type": "uint256"
        }
      ],
      "payable": false,
      "stateMutability": "view",
      "type": "function"
    },
    {
      "constant": true,
      "inputs": [],
      "name": "availableAirdrop",
      "outputs": [
        {
          "name": "",
          "type": "uint256"
        }
      ],
      "payable": false,
      "stateMutability": "view",
      "type": "function"
    },
    {
      "constant": true,
      "inputs": [],
      "name": "convertRatio",
      "outputs": [
        {
          "name": "",
          "type": "uint256"
        }
      ],
      "payable": false,
      "stateMutability": "view",
      "type": "function"
    },
    {
      "constant": true,
      "inputs": [
        {
          "name": "_addr",
          "type": "address"
        }
      ],
      "name": "balanceOf",
      "outputs": [
        {
          "name": "",
          "type": "uint256"
        }
      ],
      "payable": false,
      "stateMutability": "view",
      "type": "function"
    },
    {
      "constant": true,
      "inputs": [],
      "name": "startedAt",
      "outputs": [
        {
          "name": "",
          "type": "uint256"
        }
      ],
      "payable": false,
      "stateMutability": "view",
      "type": "function"
    },
    {
      "constant": false,
      "inputs": [],
      "name": "start",
      "outputs": [
        {
          "name": "",
          "type": "uint256"
        }
      ],
      "payable": false,
      "stateMutability": "nonpayable",
      "type": "function"
    },
    {
      "constant": true,
      "inputs": [],
      "name": "active",
      "outputs": [
        {
          "name": "",
          "type": "bool"
        }
      ],
      "payable": false,
      "stateMutability": "view",
      "type": "function"
    },
    {
      "constant": false,
      "inputs": [
        {
          "name": "_to",
          "type": "address"
        },
        {
          "name": "_value",
          "type": "uint256"
        }
      ],
      "name": "airdrop",
      "outputs": [],
      "payable": false,
      "stateMutability": "nonpayable",
      "type": "function"
    },
    {
      "constant": false,
      "inputs": [
        {
          "name": "_from",
          "type": "address"
        },
        {
          "name": "_to",
          "type": "address"
        },
        {
          "name": "_value",
          "type": "uint256"
        }
      ],
      "name": "sendTokens",
      "outputs": [
        {
          "name": "",
          "type": "uint256"
        },
        {
          "name": "",
          "type": "uint256"
        },
        {
          "name": "",
          "type": "uint256"
        }
      ],
      "payable": false,
      "stateMutability": "nonpayable",
      "type": "function"
    },
    {
      "constant": true,
      "inputs": [
        {
          "name": "_value",
          "type": "uint256"
        }
      ],
      "name": "convert",
      "outputs": [
        {
          "name": "",
          "type": "uint256"
        }
      ],
      "payable": false,
      "stateMutability": "view",
      "type": "function"
    },
    {
      "constant": false,
      "inputs": [],
      "name": "transferBalance",
      "outputs": [],
      "payable": false,
      "stateMutability": "nonpayable",
      "type": "function"
    }
  ],
  "bytecode": "0x60606040526000600160006101000a81548173ffffffffffffffffffffffffffffffffffffffff021916908373ffffffffffffffffffffffffffffffffffffffff16021790555034156200005257600080fd5b604051620016453803806200164583398101604052808051820191906020018051820191906020018051906020019091908051906020019091908051906020019091908051906020019091908051906020019091905050336000806101000a81548173ffffffffffffffffffffffffffffffffffffffff021916908373ffffffffffffffffffffffffffffffffffffffff16021790555062000141838510156040805190810160405280601f81526020017f5f696e697469616c537570706c79203c205f61697264726f70537570706c7900815250620002336401000000000262000670176401000000009004565b866002908051906020019062000159929190620002ec565b50856003908051906020019062000172929190620002ec565b5084600460006101000a81548160ff021916908360ff16021790555083600a60008060009054906101000a900473ffffffffffffffffffffffffffffffffffffffff1673ffffffffffffffffffffffffffffffffffffffff1673ffffffffffffffffffffffffffffffffffffffff16815260200190815260200160002081905550826007819055508160098190555080600581905550600460009054906101000a900460ff1660ff16600a0a8402600681905550505050505050506200039b565b811515620002db577f4e6fcbb466d348ea97194a08663e1c03d257599144f2ac28fc6b571b68aa4662816040518080602001828103825283818151815260200191508051906020019080838360005b838110156200029f57808201518184015260208101905062000282565b50505050905090810190601f168015620002cd5780820380516001836020036101000a031916815260200191505b509250505060405180910390a15b811515620002e857600080fd5b5050565b828054600181600116156101000203166002900490600052602060002090601f016020900481019282601f106200032f57805160ff191683800117855562000360565b8280016001018555821562000360579182015b828111156200035f57825182559160200191906001019062000342565b5b5090506200036f919062000373565b5090565b6200039891905b80821115620003945760008160009055506001016200037a565b5090565b90565b61129a80620003ab6000396000f3006060604052600436106100f1576000357c0100000000000000000000000000000000000000000000000000000000900463ffffffff16806302fb0c5e1461020957806306fdde031461023657806318160ddd146102c45780631fa153bf146102ed578063313ce56714610316578063545370b21461034557806366adeb8c1461036e57806370a08231146103835780638ba4cc3c146103d05780638da5cb5b1461041257806395d89b4114610467578063a3908e1b146104f5578063baf2c2791461052c578063be9a655514610555578063e6d66ac81461057e578063f21f537d14610601578063f6ca043d1461062a575b60006101396100fe610653565b6040805190810160405280600981526020017f2161637469766528290000000000000000000000000000000000000000000000815250610670565b61017b600034116040805190810160405280600e81526020017f6d73672e76616c7565203c3d2030000000000000000000000000000000000000815250610670565b61018434610724565b90506101903382610732565b5050507ff237556eb2611f4a0d74784e3b0bb3bbaf6bebf023a045bf8e78bd5d5f0c8972333483604051808473ffffffffffffffffffffffffffffffffffffffff1673ffffffffffffffffffffffffffffffffffffffff168152602001838152602001828152602001935050505060405180910390a150005b341561021457600080fd5b61021c610653565b604051808215151515815260200191505060405180910390f35b341561024157600080fd5b610249610770565b6040518080602001828103825283818151815260200191508051906020019080838360005b8381101561028957808201518184015260208101905061026e565b50505050905090810190601f1680156102b65780820380516001836020036101000a031916815260200191505b509250505060405180910390f35b34156102cf57600080fd5b6102d7610818565b6040518082815260200191505060405180910390f35b34156102f857600080fd5b610300610822565b6040518082815260200191505060405180910390f35b341561032157600080fd5b610329610828565b604051808260ff1660ff16815260200191505060405180910390f35b341561035057600080fd5b61035861083f565b6040518082815260200191505060405180910390f35b341561037957600080fd5b610381610845565b005b341561038e57600080fd5b6103ba600480803573ffffffffffffffffffffffffffffffffffffffff169060200190919050506109b8565b6040518082815260200191505060405180910390f35b34156103db57600080fd5b610410600480803573ffffffffffffffffffffffffffffffffffffffff16906020019091908035906020019091905050610a01565b005b341561041d57600080fd5b610425610c98565b604051808273ffffffffffffffffffffffffffffffffffffffff1673ffffffffffffffffffffffffffffffffffffffff16815260200191505060405180910390f35b341561047257600080fd5b61047a610cc1565b6040518080602001828103825283818151815260200191508051906020019080838360005b838110156104ba57808201518184015260208101905061049f565b50505050905090810190601f1680156104e75780820380516001836020036101000a031916815260200191505b509250505060405180910390f35b341561050057600080fd5b6105166004808035906020019091905050610724565b6040518082815260200191505060405180910390f35b341561053757600080fd5b61053f610d69565b6040518082815260200191505060405180910390f35b341561056057600080fd5b610568610d73565b6040518082815260200191505060405180910390f35b341561058957600080fd5b6105dd600480803573ffffffffffffffffffffffffffffffffffffffff1690602001909190803573ffffffffffffffffffffffffffffffffffffffff16906020019091908035906020019091905050610dda565b60405180848152602001838152602001828152602001935050505060405180910390f35b341561060c57600080fd5b610614610e4f565b6040518082815260200191505060405180910390f35b341561063557600080fd5b61063d610e59565b6040518082815260200191505060405180910390f35b60008060085411801561066b57506009546008540142105b905090565b811515610714577f4e6fcbb466d348ea97194a08663e1c03d257599144f2ac28fc6b571b68aa4662816040518080602001828103825283818151815260200191508051906020019080838360005b838110156106d95780820151818401526020810190506106be565b50505050905090810190601f1680156107065780820380516001836020036101000a031916815260200191505b509250505060405180910390a15b81151561072057600080fd5b5050565b600060055482029050919050565b60008060006107636000809054906101000a900473ffffffffffffffffffffffffffffffffffffffff168686610e63565b9250925092509250925092565b61077861125a565b60028054600181600116156101000203166002900480601f01602080910402602001604051908101604052809291908181526020018280546001816001161561010002031660029004801561080e5780601f106107e35761010080835404028352916020019161080e565b820191906000526020600020905b8154815290600101906020018083116107f157829003601f168201915b5050505050905090565b6000600654905090565b60095481565b6000600460009054906101000a900460ff16905090565b60085481565b6000809054906101000a900473ffffffffffffffffffffffffffffffffffffffff1673ffffffffffffffffffffffffffffffffffffffff163373ffffffffffffffffffffffffffffffffffffffff1614156109b6576000809054906101000a900473ffffffffffffffffffffffffffffffffffffffff1673ffffffffffffffffffffffffffffffffffffffff166108fc3073ffffffffffffffffffffffffffffffffffffffff16319081150290604051600060405180830381858888f19350505050151561091257600080fd5b7fa57e0e293b767f27b6a3f4273eba7fed5d1346568830e0e0637f8ba5757ddb7b6000809054906101000a900473ffffffffffffffffffffffffffffffffffffffff163073ffffffffffffffffffffffffffffffffffffffff1631604051808373ffffffffffffffffffffffffffffffffffffffff1673ffffffffffffffffffffffffffffffffffffffff1681526020018281526020019250505060405180910390a15b565b6000600a60008373ffffffffffffffffffffffffffffffffffffffff1673ffffffffffffffffffffffffffffffffffffffff168152602001908152602001600020549050919050565b6000809054906101000a900473ffffffffffffffffffffffffffffffffffffffff1673ffffffffffffffffffffffffffffffffffffffff163373ffffffffffffffffffffffffffffffffffffffff161415610c9457610ae6600160009054906101000a900473ffffffffffffffffffffffffffffffffffffffff1673ffffffffffffffffffffffffffffffffffffffff168373ffffffffffffffffffffffffffffffffffffffff1614156040805190810160405280601081526020017f5f746f203d3d20564f49445f4144445200000000000000000000000000000000815250610670565b610b2a8160075410156040805190810160405280601a81526020017f5f617661696c61626c6541697264726f70203c205f76616c7565000000000000815250610670565b610b70610b35610653565b6040805190810160405280600981526020017f2161637469766528290000000000000000000000000000000000000000000000815250610670565b8060076000828254039250508190555080600a60008060009054906101000a900473ffffffffffffffffffffffffffffffffffffffff1673ffffffffffffffffffffffffffffffffffffffff1673ffffffffffffffffffffffffffffffffffffffff1681526020019081526020016000206000828254039250508190555080600a60008473ffffffffffffffffffffffffffffffffffffffff1673ffffffffffffffffffffffffffffffffffffffff168152602001908152602001600020600082825401925050819055508173ffffffffffffffffffffffffffffffffffffffff167f63e374abbd092e9352034cfe45612d65045bd0c8778d8ad60626265c74fc27e782600754604051808381526020018281526020019250505060405180910390a25b5050565b60008060009054906101000a900473ffffffffffffffffffffffffffffffffffffffff16905090565b610cc961125a565b60038054600181600116156101000203166002900480601f016020809104026020016040519081016040528092919081815260200182805460018160011615610100020316600290048015610d5f5780601f10610d3457610100808354040283529160200191610d5f565b820191906000526020600020905b815481529060010190602001808311610d4257829003601f168201915b5050505050905090565b6000600554905090565b60008060009054906101000a900473ffffffffffffffffffffffffffffffffffffffff1673ffffffffffffffffffffffffffffffffffffffff163373ffffffffffffffffffffffffffffffffffffffff161415610dd7574260088190555060085490505b90565b60008060008060009054906101000a900473ffffffffffffffffffffffffffffffffffffffff1673ffffffffffffffffffffffffffffffffffffffff163373ffffffffffffffffffffffffffffffffffffffff161415610e4657610e3f868686610e63565b9250925092505b93509350939050565b6000600854905090565b6000600754905090565b6000806000610eae610e73610653565b6040805190810160405280600981526020017f2161637469766528290000000000000000000000000000000000000000000000815250610670565b610f2f84600a60008973ffffffffffffffffffffffffffffffffffffffff1673ffffffffffffffffffffffffffffffffffffffff1681526020019081526020016000205410156040805190810160405280601981526020017f5f62616c616e6365735b5f66726f6d5d203c205f76616c756500000000000000815250610670565b610f3986866110c8565b83600a60008873ffffffffffffffffffffffffffffffffffffffff1673ffffffffffffffffffffffffffffffffffffffff1681526020019081526020016000206000828254039250508190555083600a60008773ffffffffffffffffffffffffffffffffffffffff1673ffffffffffffffffffffffffffffffffffffffff168152602001908152602001600020600082825401925050819055508473ffffffffffffffffffffffffffffffffffffffff168673ffffffffffffffffffffffffffffffffffffffff167f3e17400f2b999181d4145593666ede04fe102fed6cf79eb7f9a1ca5c1fa1e65d866040518082815260200191505060405180910390a383600a60008873ffffffffffffffffffffffffffffffffffffffff1673ffffffffffffffffffffffffffffffffffffffff16815260200190815260200160002054600a60008873ffffffffffffffffffffffffffffffffffffffff1673ffffffffffffffffffffffffffffffffffffffff1681526020019081526020016000205492509250925093509350939050565b611158600160009054906101000a900473ffffffffffffffffffffffffffffffffffffffff1673ffffffffffffffffffffffffffffffffffffffff168373ffffffffffffffffffffffffffffffffffffffff1614156040805190810160405280601281526020017f5f66726f6d203d3d20564f49445f414444520000000000000000000000000000815250610670565b6111e8600160009054906101000a900473ffffffffffffffffffffffffffffffffffffffff1673ffffffffffffffffffffffffffffffffffffffff168273ffffffffffffffffffffffffffffffffffffffff1614156040805190810160405280601081526020017f5f746f203d3d20564f49445f4144445200000000000000000000000000000000815250610670565b6112568173ffffffffffffffffffffffffffffffffffffffff168373ffffffffffffffffffffffffffffffffffffffff1614156040805190810160405280600c81526020017f5f66726f6d203d3d205f746f0000000000000000000000000000000000000000815250610670565b5050565b6020604051908101604052806000815250905600a165627a7a7230582033074ecc278bc703eb11edcd444da7fc122a4cb3786e4bb0aeebe85fb56025750029",
  "source": "pragma solidity ^0.4.19;\n\nimport './Owned.sol';\n\n// common token which is owned\ncontract ICOToken is Owned {\n\n  address internal VOID_ADDR = 0x0;\n\n  // token common attributes\n  string _name;\n  string _symbol;\n  uint8 _decimals;\n\n  // ETH => RLT ratio\n  uint256 _convertRatio;\n\n  // total tokens generated (user view)\n  uint256 _totalSupply;\n\n  // total tokens generated for airdrop (user view)\n  uint256 _availableAirdrop;\n\n  // timestamp representing when this ICO was started\n  uint public _startedAt;\n\n  // number of milliseconds before the ICO ends\n  uint public _liveDuration;\n\n  // tokens balances\n  mapping (address => uint256) _balances;\n\n  // events\n  event OnRequireFailed(string _message);\n  event OnTokensAirdropped(address indexed _to, uint256 _value, uint256 _available);\n  event OnTokensTransfered(address indexed _from, address indexed _to, uint256 _value);\n  event OnFundsReceived(address _from, uint256 _eth, uint256 _tokens);\n  event OnFundsTransfered(address _from, uint256 _balance);\n\n  function requireOrLog(bool _condition, string _message) internal {\n    if (!_condition) {\n      OnRequireFailed(_message);\n    }\n    require(_condition);\n  }\n\n  // constructor\n  function ICOToken(string _tokenName, string _tokenSymbol, uint8 _tokenDecimals,\n    uint256 _initialSupply, uint256 _airdropSupply, uint _duration, uint256 _ratio) public {\n    requireOrLog(_initialSupply >= _airdropSupply, '_initialSupply < _airdropSupply');\n    _name = _tokenName;\n    _symbol = _tokenSymbol;\n    _decimals = _tokenDecimals;\n    _balances[_owner] = _initialSupply;\n    _availableAirdrop = _airdropSupply;\n    _liveDuration = _duration;\n    _convertRatio = _ratio;\n    _totalSupply = _initialSupply * 10 ** uint256(_decimals);\n  }\n\n  // getters\n  function name() public constant returns (string) { return _name; }\n  function symbol() public constant returns (string) { return _symbol; }\n  function decimals() public constant returns (uint8) { return _decimals; }\n  function totalSupply() public constant returns (uint256) { return _totalSupply; }\n  function availableAirdrop() public constant returns (uint256) { return _availableAirdrop; }\n  function convertRatio() public constant returns (uint256) { return _convertRatio; }\n\n  function balanceOf(address _addr) public view returns (uint256) { return _balances[_addr]; }\n  function startedAt() public view returns (uint) { return _startedAt; }\n\n  // starts the ICO\n  function start() public restricted returns (uint) {\n    _startedAt = now;\n    return _startedAt;\n  }\n\n  // returns true if the ICO is active\n  function active() public view returns (bool) {\n    return _startedAt > 0 && now < (_startedAt + _liveDuration);\n  }\n\n  // common addresses check\n  function _checkAddresses(address _from, address _to) internal {\n    requireOrLog(_from != VOID_ADDR, '_from == VOID_ADDR');\n    requireOrLog(_to != VOID_ADDR, '_to == VOID_ADDR');\n    requireOrLog(_from != _to, '_from == _to');\n  }\n\n  // airdrops tokens to an account\n  function airdrop(address _to, uint256 _value) public restricted {\n    requireOrLog(_to != VOID_ADDR, '_to == VOID_ADDR');\n    requireOrLog(_availableAirdrop >= _value, '_availableAirdrop < _value');\n    requireOrLog(active(), '!active()');\n    _availableAirdrop -= _value;\n    _balances[_owner] -= _value;\n    _balances[_to] += _value;\n    OnTokensAirdropped(_to, _value, _availableAirdrop);\n  }\n\n  // transfer RLT tokens from an account to another one\n  // returns the transfered tokens, the new sender balance and the new receiver balance\n  function _transferTokens(address _from, address _to, uint256 _value)\n    internal returns (uint256, uint256, uint256) {\n    requireOrLog(active(), '!active()');\n    requireOrLog(_balances[_from] >= _value, '_balances[_from] < _value');\n    _checkAddresses(_from, _to);\n    // move tokens between accounts\n    _balances[_from] -= _value;\n    _balances[_to] += _value;\n    OnTokensTransfered(_from, _to, _value);\n    return (_value, _balances[_from], _balances[_to]);\n  }\n\n  // restricted function to send tokens between accounts\n  function sendTokens(address _from, address _to, uint256 _value)\n    public restricted returns (uint256, uint256, uint256) {\n    return _transferTokens(_from, _to, _value);\n  }\n\n  // internal function to send tokens from the owner to another account\n  function sendTokensFromOwner(address _to, uint256 _value)\n    internal returns (uint256, uint256, uint256) {\n    return _transferTokens(_owner, _to, _value);\n  }\n\n  // convert ETH to RLT\n  function convert(uint256 _value) public view returns (uint256) {\n    return _value * _convertRatio;\n  }\n\n  //TODO\n  function transferBalance() public restricted {\n    _owner.transfer(this.balance);\n    OnFundsTransfered(_owner, this.balance);\n  }\n\n  // modifier that gives RLT in exchange of ETH when receivig funds\n  modifier tradable() {\n    requireOrLog(active(), '!active()');\n    // cannot trade 0 ETH\n    requireOrLog(msg.value > 0, 'msg.value <= 0');\n    // RLT value here\n    uint256 value = convert(msg.value);\n    sendTokensFromOwner(msg.sender, value);\n    OnFundsReceived(msg.sender, msg.value, value);\n    _;\n  }\n\n  // explicit asking we need to be able to receive funds in ETH\n  // calling our tradable modifier to give RLT based on ETH received\n  function () public tradable payable {}\n\n}\n",
  "sourcePath": "/home/brice/ico-random-lottery-token/contracts/ICOToken.sol",
  "compiler": {
    "name": "solc",
    "version": "0.4.19+commit.c4cbbb05.Emscripten.clang"
  },
  "schemaVersion": "2.0.0",
  "updatedAt": "2018-03-08T20:56:58.314Z"
}