{
  "contractName": "Owned",
  "abi": [
    {
      "inputs": [],
      "payable": false,
      "stateMutability": "nonpayable",
      "type": "constructor"
    },
    {
      "constant": true,
      "inputs": [],
      "name": "owner",
      "outputs": [
        {
          "name": "",
          "type": "address"
        }
      ],
      "payable": false,
      "stateMutability": "view",
      "type": "function"
    }
  ],
  "bytecode": "0x6060604052341561000f57600080fd5b336000806101000a81548173ffffffffffffffffffffffffffffffffffffffff021916908373ffffffffffffffffffffffffffffffffffffffff16021790555060eb8061005d6000396000f300606060405260043610603f576000357c0100000000000000000000000000000000000000000000000000000000900463ffffffff1680638da5cb5b146044575b600080fd5b3415604e57600080fd5b60546096565b604051808273ffffffffffffffffffffffffffffffffffffffff1673ffffffffffffffffffffffffffffffffffffffff16815260200191505060405180910390f35b60008060009054906101000a900473ffffffffffffffffffffffffffffffffffffffff169050905600a165627a7a7230582049f93efc82c518eab8bff628980185dd74f6b670cf62002f75d90a8a486a86eb0029",
  "source": "pragma solidity ^0.4.19;\n\n// represents a contract which is owned\ncontract Owned {\n\n  // contract owner\n  address _owner;\n\n  function Owned() public { _owner = msg.sender; }\n\n  function owner() public constant returns (address) { return _owner; }\n\n  // gives the ability to restrict a function access to the contract owner\n  modifier restricted() { if (msg.sender == _owner) _; }\n\n}\n",
  "sourcePath": "/home/brice/ico-random-lottery-token/contracts/Owned.sol",
  "compiler": {
    "name": "solc",
    "version": "0.4.19+commit.c4cbbb05.Emscripten.clang"
  },
  "schemaVersion": "2.0.0",
  "updatedAt": "2018-03-08T19:01:17.855Z"
}