{
  "contractName": "RandomLotteryToken",
  "abi": [
    {
      "constant": true,
      "inputs": [],
      "name": "name",
      "outputs": [
        {
          "name": "",
          "type": "string"
        }
      ],
      "payable": false,
      "stateMutability": "view",
      "type": "function"
    },
    {
      "constant": true,
      "inputs": [],
      "name": "totalSupply",
      "outputs": [
        {
          "name": "",
          "type": "uint256"
        }
      ],
      "payable": false,
      "stateMutability": "view",
      "type": "function"
    },
    {
      "constant": true,
      "inputs": [
        {
          "name": "",
          "type": "address"
        }
      ],
      "name": "balances",
      "outputs": [
        {
          "name": "",
          "type": "uint256"
        }
      ],
      "payable": false,
      "stateMutability": "view",
      "type": "function"
    },
    {
      "constant": true,
      "inputs": [],
      "name": "decimals",
      "outputs": [
        {
          "name": "",
          "type": "uint8"
        }
      ],
      "payable": false,
      "stateMutability": "view",
      "type": "function"
    },
    {
      "constant": true,
      "inputs": [],
      "name": "symbol",
      "outputs": [
        {
          "name": "",
          "type": "string"
        }
      ],
      "payable": false,
      "stateMutability": "view",
      "type": "function"
    },
    {
      "inputs": [
        {
          "name": "initialSupply",
          "type": "uint256"
        }
      ],
      "payable": false,
      "stateMutability": "nonpayable",
      "type": "constructor"
    },
    {
      "constant": false,
      "inputs": [
        {
          "name": "to",
          "type": "address"
        },
        {
          "name": "value",
          "type": "uint256"
        }
      ],
      "name": "transfert",
      "outputs": [
        {
          "name": "",
          "type": "uint256"
        }
      ],
      "payable": false,
      "stateMutability": "nonpayable",
      "type": "function"
    },
    {
      "constant": true,
      "inputs": [
        {
          "name": "addr",
          "type": "address"
        }
      ],
      "name": "balanceOf",
      "outputs": [
        {
          "name": "",
          "type": "uint256"
        }
      ],
      "payable": false,
      "stateMutability": "view",
      "type": "function"
    }
  ],
  "bytecode": "0x60606040526040805190810160405280601481526020017f52616e646f6d204c6f747465727920546f6b656e0000000000000000000000008152506000908051906020019061004f929190610147565b506040805190810160405280600381526020017f524c5400000000000000000000000000000000000000000000000000000000008152506001908051906020019061009b929190610147565b506012600260006101000a81548160ff021916908360ff16021790555034156100c357600080fd5b60405160208061088083398101604052808051906020019091905050600260009054906101000a900460ff1660ff16600a0a810260038190555080600460003373ffffffffffffffffffffffffffffffffffffffff1673ffffffffffffffffffffffffffffffffffffffff16815260200190815260200160002081905550506101ec565b828054600181600116156101000203166002900490600052602060002090601f016020900481019282601f1061018857805160ff19168380011785556101b6565b828001600101855582156101b6579182015b828111156101b557825182559160200191906001019061019a565b5b5090506101c391906101c7565b5090565b6101e991905b808211156101e55760008160009055506001016101cd565b5090565b90565b610685806101fb6000396000f300606060405260043610610083576000357c0100000000000000000000000000000000000000000000000000000000900463ffffffff16806306fdde031461008857806318160ddd1461011657806327e235e31461013f578063313ce5671461018c5780634362c116146101bb57806370a082311461021157806395d89b411461025e575b600080fd5b341561009357600080fd5b61009b6102ec565b6040518080602001828103825283818151815260200191508051906020019080838360005b838110156100db5780820151818401526020810190506100c0565b50505050905090810190601f1680156101085780820380516001836020036101000a031916815260200191505b509250505060405180910390f35b341561012157600080fd5b61012961038a565b6040518082815260200191505060405180910390f35b341561014a57600080fd5b610176600480803573ffffffffffffffffffffffffffffffffffffffff16906020019091905050610390565b6040518082815260200191505060405180910390f35b341561019757600080fd5b61019f6103a8565b604051808260ff1660ff16815260200191505060405180910390f35b34156101c657600080fd5b6101fb600480803573ffffffffffffffffffffffffffffffffffffffff169060200190919080359060200190919050506103bb565b6040518082815260200191505060405180910390f35b341561021c57600080fd5b610248600480803573ffffffffffffffffffffffffffffffffffffffff169060200190919050506103d0565b6040518082815260200191505060405180910390f35b341561026957600080fd5b610271610419565b6040518080602001828103825283818151815260200191508051906020019080838360005b838110156102b1578082015181840152602081019050610296565b50505050905090810190601f1680156102de5780820380516001836020036101000a031916815260200191505b509250505060405180910390f35b60008054600181600116156101000203166002900480601f0160208091040260200160405190810160405280929190818152602001828054600181600116156101000203166002900480156103825780601f1061035757610100808354040283529160200191610382565b820191906000526020600020905b81548152906001019060200180831161036557829003601f168201915b505050505081565b60035481565b60046020528060005260406000206000915090505481565b600260009054906101000a900460ff1681565b60006103c83384846104b7565b905092915050565b6000600460008373ffffffffffffffffffffffffffffffffffffffff1673ffffffffffffffffffffffffffffffffffffffff168152602001908152602001600020549050919050565b60018054600181600116156101000203166002900480601f0160208091040260200160405190810160405280929190818152602001828054600181600116156101000203166002900480156104af5780601f10610484576101008083540402835291602001916104af565b820191906000526020600020905b81548152906001019060200180831161049257829003601f168201915b505050505081565b6000808373ffffffffffffffffffffffffffffffffffffffff16141515156104de57600080fd5b8273ffffffffffffffffffffffffffffffffffffffff168473ffffffffffffffffffffffffffffffffffffffff161415151561051957600080fd5b60008211151561052857600080fd5b81600460008673ffffffffffffffffffffffffffffffffffffffff1673ffffffffffffffffffffffffffffffffffffffff168152602001908152602001600020541015151561057657600080fd5b81600460008673ffffffffffffffffffffffffffffffffffffffff1673ffffffffffffffffffffffffffffffffffffffff1681526020019081526020016000206000828254039250508190555081600460008573ffffffffffffffffffffffffffffffffffffffff1673ffffffffffffffffffffffffffffffffffffffff16815260200190815260200160002060008282540192505081905550600460008573ffffffffffffffffffffffffffffffffffffffff1673ffffffffffffffffffffffffffffffffffffffff16815260200190815260200160002054905093925050505600a165627a7a72305820e1fbfd426790ac844e0c05086fb33a7692ecb1ca11f90ed352f2e20a5f3708bb0029",
  "source": "pragma solidity ^0.4.17;\n\ncontract RandomLotteryToken {\n\n  string public name = 'Random Lottery Token';\n  string public symbol = 'RLT';\n  uint8 public decimals = 18;\n\n  uint256 public totalSupply;\n\n  mapping (address => uint256) public balances;\n\n  //event Transfer(address indexed from, address indexed to, uint256 value);\n\n  function RandomLotteryToken(uint256 initialSupply) public {\n    totalSupply = initialSupply * 10 ** uint256(decimals);\n    balances[msg.sender] = initialSupply;\n  }\n\n  function _transfert(address from, address to, uint256 value) internal returns (uint256) {\n    require(to != 0x0);\n    require(from != to);\n    require(value > 0);\n    require(balances[from] >= value);\n    balances[from] -= value;\n    balances[to] += value;\n    //Transfer(from, to, value);\n    return balances[from];\n  }\n\n  function transfert(address to, uint256 value) public returns (uint256) {\n    return _transfert(msg.sender, to, value);\n  }\n\n  function balanceOf(address addr) public view returns (uint256) {\n    return balances[addr];\n  }\n\n}\n",
  "sourcePath": "/home/brice/ico-random-lottery-token/contracts/RandomLotteryToken.sol",
  "compiler": {
    "name": "solc",
    "version": "0.4.19+commit.c4cbbb05.Emscripten.clang"
  },
  "schemaVersion": "2.0.0",
  "updatedAt": "2018-03-07T14:00:41.518Z"
}