{
  "contractName": "RandomLotteryToken",
  "abi": [
    {
      "constant": true,
      "inputs": [],
      "name": "active",
      "outputs": [
        {
          "name": "",
          "type": "bool"
        }
      ],
      "payable": false,
      "stateMutability": "view",
      "type": "function"
    },
    {
      "constant": true,
      "inputs": [],
      "name": "name",
      "outputs": [
        {
          "name": "",
          "type": "string"
        }
      ],
      "payable": false,
      "stateMutability": "view",
      "type": "function"
    },
    {
      "constant": true,
      "inputs": [],
      "name": "totalSupply",
      "outputs": [
        {
          "name": "",
          "type": "uint256"
        }
      ],
      "payable": false,
      "stateMutability": "view",
      "type": "function"
    },
    {
      "constant": true,
      "inputs": [],
      "name": "_liveDuration",
      "outputs": [
        {
          "name": "",
          "type": "uint256"
        }
      ],
      "payable": false,
      "stateMutability": "view",
      "type": "function"
    },
    {
      "constant": true,
      "inputs": [],
      "name": "decimals",
      "outputs": [
        {
          "name": "",
          "type": "uint8"
        }
      ],
      "payable": false,
      "stateMutability": "view",
      "type": "function"
    },
    {
      "constant": true,
      "inputs": [],
      "name": "_startedAt",
      "outputs": [
        {
          "name": "",
          "type": "uint256"
        }
      ],
      "payable": false,
      "stateMutability": "view",
      "type": "function"
    },
    {
      "constant": false,
      "inputs": [],
      "name": "transferBalance",
      "outputs": [],
      "payable": false,
      "stateMutability": "nonpayable",
      "type": "function"
    },
    {
      "constant": true,
      "inputs": [
        {
          "name": "_addr",
          "type": "address"
        }
      ],
      "name": "balanceOf",
      "outputs": [
        {
          "name": "",
          "type": "uint256"
        }
      ],
      "payable": false,
      "stateMutability": "view",
      "type": "function"
    },
    {
      "constant": false,
      "inputs": [
        {
          "name": "_to",
          "type": "address"
        },
        {
          "name": "_value",
          "type": "uint256"
        }
      ],
      "name": "airdrop",
      "outputs": [],
      "payable": false,
      "stateMutability": "nonpayable",
      "type": "function"
    },
    {
      "constant": true,
      "inputs": [],
      "name": "owner",
      "outputs": [
        {
          "name": "",
          "type": "address"
        }
      ],
      "payable": false,
      "stateMutability": "view",
      "type": "function"
    },
    {
      "constant": true,
      "inputs": [],
      "name": "symbol",
      "outputs": [
        {
          "name": "",
          "type": "string"
        }
      ],
      "payable": false,
      "stateMutability": "view",
      "type": "function"
    },
    {
      "constant": true,
      "inputs": [
        {
          "name": "_value",
          "type": "uint256"
        }
      ],
      "name": "convert",
      "outputs": [
        {
          "name": "",
          "type": "uint256"
        }
      ],
      "payable": false,
      "stateMutability": "view",
      "type": "function"
    },
    {
      "constant": true,
      "inputs": [],
      "name": "convertRatio",
      "outputs": [
        {
          "name": "",
          "type": "uint256"
        }
      ],
      "payable": false,
      "stateMutability": "view",
      "type": "function"
    },
    {
      "constant": false,
      "inputs": [],
      "name": "start",
      "outputs": [
        {
          "name": "",
          "type": "uint256"
        }
      ],
      "payable": false,
      "stateMutability": "nonpayable",
      "type": "function"
    },
    {
      "constant": false,
      "inputs": [
        {
          "name": "_from",
          "type": "address"
        },
        {
          "name": "_to",
          "type": "address"
        },
        {
          "name": "_value",
          "type": "uint256"
        }
      ],
      "name": "sendTokens",
      "outputs": [
        {
          "name": "",
          "type": "uint256"
        },
        {
          "name": "",
          "type": "uint256"
        },
        {
          "name": "",
          "type": "uint256"
        }
      ],
      "payable": false,
      "stateMutability": "nonpayable",
      "type": "function"
    },
    {
      "constant": true,
      "inputs": [],
      "name": "startedAt",
      "outputs": [
        {
          "name": "",
          "type": "uint256"
        }
      ],
      "payable": false,
      "stateMutability": "view",
      "type": "function"
    },
    {
      "constant": true,
      "inputs": [],
      "name": "availableAirdrop",
      "outputs": [
        {
          "name": "",
          "type": "uint256"
        }
      ],
      "payable": false,
      "stateMutability": "view",
      "type": "function"
    },
    {
      "inputs": [],
      "payable": false,
      "stateMutability": "nonpayable",
      "type": "constructor"
    },
    {
      "payable": true,
      "stateMutability": "payable",
      "type": "fallback"
    },
    {
      "anonymous": false,
      "inputs": [
        {
          "indexed": false,
          "name": "_message",
          "type": "string"
        }
      ],
      "name": "OnRequireFailed",
      "type": "event"
    },
    {
      "anonymous": false,
      "inputs": [
        {
          "indexed": true,
          "name": "_to",
          "type": "address"
        },
        {
          "indexed": false,
          "name": "_value",
          "type": "uint256"
        },
        {
          "indexed": false,
          "name": "_available",
          "type": "uint256"
        }
      ],
      "name": "OnTokensAirdropped",
      "type": "event"
    },
    {
      "anonymous": false,
      "inputs": [
        {
          "indexed": true,
          "name": "_from",
          "type": "address"
        },
        {
          "indexed": true,
          "name": "_to",
          "type": "address"
        },
        {
          "indexed": false,
          "name": "_value",
          "type": "uint256"
        }
      ],
      "name": "OnTokensTransfered",
      "type": "event"
    },
    {
      "anonymous": false,
      "inputs": [
        {
          "indexed": false,
          "name": "_from",
          "type": "address"
        },
        {
          "indexed": false,
          "name": "_eth",
          "type": "uint256"
        },
        {
          "indexed": false,
          "name": "_tokens",
          "type": "uint256"
        }
      ],
      "name": "OnFundsReceived",
      "type": "event"
    },
    {
      "anonymous": false,
      "inputs": [
        {
          "indexed": false,
          "name": "_from",
          "type": "address"
        },
        {
          "indexed": false,
          "name": "_balance",
          "type": "uint256"
        }
      ],
      "name": "OnFundsTransfered",
      "type": "event"
    },
    {
      "constant": true,
      "inputs": [
        {
          "name": "_addr",
          "type": "address"
        }
      ],
      "name": "betOf",
      "outputs": [
        {
          "name": "",
          "type": "uint256"
        }
      ],
      "payable": false,
      "stateMutability": "view",
      "type": "function"
    },
    {
      "constant": false,
      "inputs": [
        {
          "name": "_value",
          "type": "uint256"
        }
      ],
      "name": "bet",
      "outputs": [
        {
          "name": "",
          "type": "uint256"
        },
        {
          "name": "",
          "type": "uint256"
        },
        {
          "name": "",
          "type": "uint256"
        }
      ],
      "payable": false,
      "stateMutability": "nonpayable",
      "type": "function"
    }
  ],
  "bytecode": "0x60606040526000600160006101000a81548173ffffffffffffffffffffffffffffffffffffffff021916908373ffffffffffffffffffffffffffffffffffffffff16021790555034156200005257600080fd5b6040805190810160405280601481526020017f52616e646f6d204c6f747465727920546f6b656e0000000000000000000000008152506040805190810160405280600381526020017f524c5400000000000000000000000000000000000000000000000000000000008152506012633b9aca00620f42406102d96064336000806101000a81548173ffffffffffffffffffffffffffffffffffffffff021916908373ffffffffffffffffffffffffffffffffffffffff16021790555062000166838510156040805190810160405280601f81526020017f5f696e697469616c537570706c79203c205f61697264726f70537570706c7900815250620002586401000000000262000718176401000000009004565b86600290805190602001906200017e92919062000311565b5085600390805190602001906200019792919062000311565b5084600460006101000a81548160ff021916908360ff16021790555083600a60008060009054906101000a900473ffffffffffffffffffffffffffffffffffffffff1673ffffffffffffffffffffffffffffffffffffffff1673ffffffffffffffffffffffffffffffffffffffff16815260200190815260200160002081905550826007819055508160098190555080600581905550600460009054906101000a900460ff1660ff16600a0a840260068190555050505050505050620003c0565b81151562000300577f4e6fcbb466d348ea97194a08663e1c03d257599144f2ac28fc6b571b68aa4662816040518080602001828103825283818151815260200191508051906020019080838360005b83811015620002c4578082015181840152602081019050620002a7565b50505050905090810190601f168015620002f25780820380516001836020036101000a031916815260200191505b509250505060405180910390a15b8115156200030d57600080fd5b5050565b828054600181600116156101000203166002900490600052602060002090601f016020900481019282601f106200035457805160ff191683800117855562000385565b8280016001018555821562000385579182015b828111156200038457825182559160200191906001019062000367565b5b50905062000394919062000398565b5090565b620003bd91905b80821115620003b95760008160009055506001016200039f565b5090565b90565b6115ed80620003d06000396000f300606060405260043610610107576000357c0100000000000000000000000000000000000000000000000000000000900463ffffffff16806302fb0c5e1461021f57806306fdde031461024c57806318160ddd146102da5780631fa153bf14610303578063313ce5671461032c5780634288d7591461035b578063545370b2146103a857806366adeb8c146103d157806370a08231146103e65780637365870b146104335780638ba4cc3c146104785780638da5cb5b146104ba57806395d89b411461050f578063a3908e1b1461059d578063baf2c279146105d4578063be9a6555146105fd578063e6d66ac814610626578063f21f537d146106a9578063f6ca043d146106d2575b600061014f6101146106fb565b6040805190810160405280600981526020017f2161637469766528290000000000000000000000000000000000000000000000815250610718565b610191600034116040805190810160405280600e81526020017f6d73672e76616c7565203c3d2030000000000000000000000000000000000000815250610718565b61019a346107cc565b90506101a633826107da565b5050507ff237556eb2611f4a0d74784e3b0bb3bbaf6bebf023a045bf8e78bd5d5f0c8972333483604051808473ffffffffffffffffffffffffffffffffffffffff1673ffffffffffffffffffffffffffffffffffffffff168152602001838152602001828152602001935050505060405180910390a150005b341561022a57600080fd5b6102326106fb565b604051808215151515815260200191505060405180910390f35b341561025757600080fd5b61025f610818565b6040518080602001828103825283818151815260200191508051906020019080838360005b8381101561029f578082015181840152602081019050610284565b50505050905090810190601f1680156102cc5780820380516001836020036101000a031916815260200191505b509250505060405180910390f35b34156102e557600080fd5b6102ed6108c0565b6040518082815260200191505060405180910390f35b341561030e57600080fd5b6103166108ca565b6040518082815260200191505060405180910390f35b341561033757600080fd5b61033f6108d0565b604051808260ff1660ff16815260200191505060405180910390f35b341561036657600080fd5b610392600480803573ffffffffffffffffffffffffffffffffffffffff169060200190919050506108e7565b6040518082815260200191505060405180910390f35b34156103b357600080fd5b6103bb610930565b6040518082815260200191505060405180910390f35b34156103dc57600080fd5b6103e4610936565b005b34156103f157600080fd5b61041d600480803573ffffffffffffffffffffffffffffffffffffffff16906020019091905050610aa9565b6040518082815260200191505060405180910390f35b341561043e57600080fd5b6104546004808035906020019091905050610af2565b60405180848152602001838152602001828152602001935050505060405180910390f35b341561048357600080fd5b6104b8600480803573ffffffffffffffffffffffffffffffffffffffff16906020019091908035906020019091905050610d54565b005b34156104c557600080fd5b6104cd610feb565b604051808273ffffffffffffffffffffffffffffffffffffffff1673ffffffffffffffffffffffffffffffffffffffff16815260200191505060405180910390f35b341561051a57600080fd5b610522611014565b6040518080602001828103825283818151815260200191508051906020019080838360005b83811015610562578082015181840152602081019050610547565b50505050905090810190601f16801561058f5780820380516001836020036101000a031916815260200191505b509250505060405180910390f35b34156105a857600080fd5b6105be60048080359060200190919050506107cc565b6040518082815260200191505060405180910390f35b34156105df57600080fd5b6105e76110bc565b6040518082815260200191505060405180910390f35b341561060857600080fd5b6106106110c6565b6040518082815260200191505060405180910390f35b341561063157600080fd5b610685600480803573ffffffffffffffffffffffffffffffffffffffff1690602001909190803573ffffffffffffffffffffffffffffffffffffffff1690602001909190803590602001909190505061112d565b60405180848152602001838152602001828152602001935050505060405180910390f35b34156106b457600080fd5b6106bc6111a2565b6040518082815260200191505060405180910390f35b34156106dd57600080fd5b6106e56111ac565b6040518082815260200191505060405180910390f35b60008060085411801561071357506009546008540142105b905090565b8115156107bc577f4e6fcbb466d348ea97194a08663e1c03d257599144f2ac28fc6b571b68aa4662816040518080602001828103825283818151815260200191508051906020019080838360005b83811015610781578082015181840152602081019050610766565b50505050905090810190601f1680156107ae5780820380516001836020036101000a031916815260200191505b509250505060405180910390a15b8115156107c857600080fd5b5050565b600060055482029050919050565b600080600061080b6000809054906101000a900473ffffffffffffffffffffffffffffffffffffffff1686866111b6565b9250925092509250925092565b6108206115ad565b60028054600181600116156101000203166002900480601f0160208091040260200160405190810160405280929190818152602001828054600181600116156101000203166002900480156108b65780601f1061088b576101008083540402835291602001916108b6565b820191906000526020600020905b81548152906001019060200180831161089957829003601f168201915b5050505050905090565b6000600654905090565b60095481565b6000600460009054906101000a900460ff16905090565b6000600b60008373ffffffffffffffffffffffffffffffffffffffff1673ffffffffffffffffffffffffffffffffffffffff168152602001908152602001600020549050919050565b60085481565b6000809054906101000a900473ffffffffffffffffffffffffffffffffffffffff1673ffffffffffffffffffffffffffffffffffffffff163373ffffffffffffffffffffffffffffffffffffffff161415610aa7576000809054906101000a900473ffffffffffffffffffffffffffffffffffffffff1673ffffffffffffffffffffffffffffffffffffffff166108fc3073ffffffffffffffffffffffffffffffffffffffff16319081150290604051600060405180830381858888f193505050501515610a0357600080fd5b7fa57e0e293b767f27b6a3f4273eba7fed5d1346568830e0e0637f8ba5757ddb7b6000809054906101000a900473ffffffffffffffffffffffffffffffffffffffff163073ffffffffffffffffffffffffffffffffffffffff1631604051808373ffffffffffffffffffffffffffffffffffffffff1673ffffffffffffffffffffffffffffffffffffffff1681526020018281526020019250505060405180910390a15b565b6000600a60008373ffffffffffffffffffffffffffffffffffffffff1673ffffffffffffffffffffffffffffffffffffffff168152602001908152602001600020549050919050565b6000806000610b7884600a60003373ffffffffffffffffffffffffffffffffffffffff1673ffffffffffffffffffffffffffffffffffffffff1681526020019081526020016000205410156040805190810160405280601e81526020017f5f62616c616e6365735b6d73672e73656e6465725d203c205f76616c75650000815250610718565b6000600b60003373ffffffffffffffffffffffffffffffffffffffff1673ffffffffffffffffffffffffffffffffffffffff168152602001908152602001600020541415610c2c576001600c60003373ffffffffffffffffffffffffffffffffffffffff1673ffffffffffffffffffffffffffffffffffffffff16815260200190815260200160002060008282829054906101000a900460ff160192506101000a81548160ff021916908360ff1602179055505b83600a60003373ffffffffffffffffffffffffffffffffffffffff1673ffffffffffffffffffffffffffffffffffffffff1681526020019081526020016000206000828254039250508190555083600b60003373ffffffffffffffffffffffffffffffffffffffff1673ffffffffffffffffffffffffffffffffffffffff1681526020019081526020016000206000828254019250508190555083600b60003373ffffffffffffffffffffffffffffffffffffffff1673ffffffffffffffffffffffffffffffffffffffff16815260200190815260200160002054600a60003373ffffffffffffffffffffffffffffffffffffffff1673ffffffffffffffffffffffffffffffffffffffff168152602001908152602001600020549250925092509193909250565b6000809054906101000a900473ffffffffffffffffffffffffffffffffffffffff1673ffffffffffffffffffffffffffffffffffffffff163373ffffffffffffffffffffffffffffffffffffffff161415610fe757610e39600160009054906101000a900473ffffffffffffffffffffffffffffffffffffffff1673ffffffffffffffffffffffffffffffffffffffff168373ffffffffffffffffffffffffffffffffffffffff1614156040805190810160405280601081526020017f5f746f203d3d20564f49445f4144445200000000000000000000000000000000815250610718565b610e7d8160075410156040805190810160405280601a81526020017f5f617661696c61626c6541697264726f70203c205f76616c7565000000000000815250610718565b610ec3610e886106fb565b6040805190810160405280600981526020017f2161637469766528290000000000000000000000000000000000000000000000815250610718565b8060076000828254039250508190555080600a60008060009054906101000a900473ffffffffffffffffffffffffffffffffffffffff1673ffffffffffffffffffffffffffffffffffffffff1673ffffffffffffffffffffffffffffffffffffffff1681526020019081526020016000206000828254039250508190555080600a60008473ffffffffffffffffffffffffffffffffffffffff1673ffffffffffffffffffffffffffffffffffffffff168152602001908152602001600020600082825401925050819055508173ffffffffffffffffffffffffffffffffffffffff167f63e374abbd092e9352034cfe45612d65045bd0c8778d8ad60626265c74fc27e782600754604051808381526020018281526020019250505060405180910390a25b5050565b60008060009054906101000a900473ffffffffffffffffffffffffffffffffffffffff16905090565b61101c6115ad565b60038054600181600116156101000203166002900480601f0160208091040260200160405190810160405280929190818152602001828054600181600116156101000203166002900480156110b25780601f10611087576101008083540402835291602001916110b2565b820191906000526020600020905b81548152906001019060200180831161109557829003601f168201915b5050505050905090565b6000600554905090565b60008060009054906101000a900473ffffffffffffffffffffffffffffffffffffffff1673ffffffffffffffffffffffffffffffffffffffff163373ffffffffffffffffffffffffffffffffffffffff16141561112a574260088190555060085490505b90565b60008060008060009054906101000a900473ffffffffffffffffffffffffffffffffffffffff1673ffffffffffffffffffffffffffffffffffffffff163373ffffffffffffffffffffffffffffffffffffffff161415611199576111928686866111b6565b9250925092505b93509350939050565b6000600854905090565b6000600754905090565b60008060006112016111c66106fb565b6040805190810160405280600981526020017f2161637469766528290000000000000000000000000000000000000000000000815250610718565b61128284600a60008973ffffffffffffffffffffffffffffffffffffffff1673ffffffffffffffffffffffffffffffffffffffff1681526020019081526020016000205410156040805190810160405280601981526020017f5f62616c616e6365735b5f66726f6d5d203c205f76616c756500000000000000815250610718565b61128c868661141b565b83600a60008873ffffffffffffffffffffffffffffffffffffffff1673ffffffffffffffffffffffffffffffffffffffff1681526020019081526020016000206000828254039250508190555083600a60008773ffffffffffffffffffffffffffffffffffffffff1673ffffffffffffffffffffffffffffffffffffffff168152602001908152602001600020600082825401925050819055508473ffffffffffffffffffffffffffffffffffffffff168673ffffffffffffffffffffffffffffffffffffffff167f3e17400f2b999181d4145593666ede04fe102fed6cf79eb7f9a1ca5c1fa1e65d866040518082815260200191505060405180910390a383600a60008873ffffffffffffffffffffffffffffffffffffffff1673ffffffffffffffffffffffffffffffffffffffff16815260200190815260200160002054600a60008873ffffffffffffffffffffffffffffffffffffffff1673ffffffffffffffffffffffffffffffffffffffff1681526020019081526020016000205492509250925093509350939050565b6114ab600160009054906101000a900473ffffffffffffffffffffffffffffffffffffffff1673ffffffffffffffffffffffffffffffffffffffff168373ffffffffffffffffffffffffffffffffffffffff1614156040805190810160405280601281526020017f5f66726f6d203d3d20564f49445f414444520000000000000000000000000000815250610718565b61153b600160009054906101000a900473ffffffffffffffffffffffffffffffffffffffff1673ffffffffffffffffffffffffffffffffffffffff168273ffffffffffffffffffffffffffffffffffffffff1614156040805190810160405280601081526020017f5f746f203d3d20564f49445f4144445200000000000000000000000000000000815250610718565b6115a98173ffffffffffffffffffffffffffffffffffffffff168373ffffffffffffffffffffffffffffffffffffffff1614156040805190810160405280600c81526020017f5f66726f6d203d3d205f746f0000000000000000000000000000000000000000815250610718565b5050565b6020604051908101604052806000815250905600a165627a7a723058200f104e87b9fe3b47aa4fcca04513d1bfe7f1d8def743cf403e29f33d7cc4b25e0029",
  "source": "pragma solidity ^0.4.19;\n\nimport './ICOToken.sol';\n\ncontract RandomLotteryToken is ICOToken {\n\n  // total bets by address (for the current day)\n  mapping (address => uint256) _bets;\n\n  // nb bets by address from the begining (one per day max)\n  mapping (address => uint8) _nbBets;\n\n  // constructor\n  function RandomLotteryToken()\n    ICOToken(\n      'Random Lottery Token', // name\n      'RLT', // symbol\n      18, // decimals\n      10 ** 9, // tokens\n      10 ** 6, // airdrop\n      3 ** 6, // duration (about 1 month)\n      100 // convert ratio\n  ) public {}\n\n  function betOf(address _addr) public view returns (uint256) { return _bets[_addr]; }\n\n  // allows account to bet\n  // returns the bet value, the total bet (for the day), the current balance\n  function bet(uint256 _value) public returns (uint256, uint256, uint256) {\n    // cannot bet more than we have\n    requireOrLog(_balances[msg.sender] >= _value, '_balances[msg.sender] < _value');\n    // first bet of the day, let's increment the account bet counter\n    if (_bets[msg.sender] == 0) {\n      _nbBets[msg.sender] += 1;\n    }\n    // move from balance to bet\n    _balances[msg.sender] -= _value;\n    _bets[msg.sender] += _value;\n    return (\n      _value,\n      _bets[msg.sender],\n      _balances[msg.sender]\n    );\n  }\n\n}\n",
  "sourcePath": "/home/brice/ico-random-lottery-token/contracts/RandomLotteryToken.sol",
  "compiler": {
    "name": "solc",
    "version": "0.4.19+commit.c4cbbb05.Emscripten.clang"
  },
  "schemaVersion": "2.0.0",
  "updatedAt": "2018-03-08T20:56:58.507Z"
}