{
  "contractName": "RandomLotteryToken",
  "abi": [
    {
      "constant": true,
      "inputs": [],
      "name": "name",
      "outputs": [
        {
          "name": "",
          "type": "string"
        }
      ],
      "payable": false,
      "stateMutability": "view",
      "type": "function"
    },
    {
      "constant": true,
      "inputs": [],
      "name": "totalSupply",
      "outputs": [
        {
          "name": "",
          "type": "uint256"
        }
      ],
      "payable": false,
      "stateMutability": "view",
      "type": "function"
    },
    {
      "constant": true,
      "inputs": [],
      "name": "decimals",
      "outputs": [
        {
          "name": "",
          "type": "uint8"
        }
      ],
      "payable": false,
      "stateMutability": "view",
      "type": "function"
    },
    {
      "constant": false,
      "inputs": [],
      "name": "transferBalance",
      "outputs": [],
      "payable": false,
      "stateMutability": "nonpayable",
      "type": "function"
    },
    {
      "constant": true,
      "inputs": [
        {
          "name": "_addr",
          "type": "address"
        }
      ],
      "name": "balanceOf",
      "outputs": [
        {
          "name": "",
          "type": "uint256"
        }
      ],
      "payable": false,
      "stateMutability": "view",
      "type": "function"
    },
    {
      "constant": true,
      "inputs": [],
      "name": "owner",
      "outputs": [
        {
          "name": "",
          "type": "address"
        }
      ],
      "payable": false,
      "stateMutability": "view",
      "type": "function"
    },
    {
      "constant": true,
      "inputs": [],
      "name": "symbol",
      "outputs": [
        {
          "name": "",
          "type": "string"
        }
      ],
      "payable": false,
      "stateMutability": "view",
      "type": "function"
    },
    {
      "constant": true,
      "inputs": [
        {
          "name": "_value",
          "type": "uint256"
        }
      ],
      "name": "convert",
      "outputs": [
        {
          "name": "",
          "type": "uint256"
        }
      ],
      "payable": false,
      "stateMutability": "view",
      "type": "function"
    },
    {
      "constant": true,
      "inputs": [],
      "name": "convertRatio",
      "outputs": [
        {
          "name": "",
          "type": "uint256"
        }
      ],
      "payable": false,
      "stateMutability": "view",
      "type": "function"
    },
    {
      "constant": false,
      "inputs": [
        {
          "name": "_from",
          "type": "address"
        },
        {
          "name": "_to",
          "type": "address"
        },
        {
          "name": "_value",
          "type": "uint256"
        }
      ],
      "name": "sendTokens",
      "outputs": [
        {
          "name": "",
          "type": "uint256"
        },
        {
          "name": "",
          "type": "uint256"
        },
        {
          "name": "",
          "type": "uint256"
        }
      ],
      "payable": false,
      "stateMutability": "nonpayable",
      "type": "function"
    },
    {
      "inputs": [],
      "payable": false,
      "stateMutability": "nonpayable",
      "type": "constructor"
    },
    {
      "payable": true,
      "stateMutability": "payable",
      "type": "fallback"
    },
    {
      "anonymous": false,
      "inputs": [
        {
          "indexed": true,
          "name": "_from",
          "type": "address"
        },
        {
          "indexed": true,
          "name": "_to",
          "type": "address"
        },
        {
          "indexed": false,
          "name": "_value",
          "type": "uint256"
        }
      ],
      "name": "OnTokensTransfered",
      "type": "event"
    },
    {
      "anonymous": false,
      "inputs": [
        {
          "indexed": false,
          "name": "_from",
          "type": "address"
        },
        {
          "indexed": false,
          "name": "_eth",
          "type": "uint256"
        },
        {
          "indexed": false,
          "name": "_tokens",
          "type": "uint256"
        }
      ],
      "name": "OnFundsReceived",
      "type": "event"
    },
    {
      "anonymous": false,
      "inputs": [
        {
          "indexed": false,
          "name": "_from",
          "type": "address"
        },
        {
          "indexed": false,
          "name": "_balance",
          "type": "uint256"
        }
      ],
      "name": "OnFundsTransfered",
      "type": "event"
    },
    {
      "constant": true,
      "inputs": [
        {
          "name": "_addr",
          "type": "address"
        }
      ],
      "name": "betOf",
      "outputs": [
        {
          "name": "",
          "type": "uint256"
        }
      ],
      "payable": false,
      "stateMutability": "view",
      "type": "function"
    },
    {
      "constant": false,
      "inputs": [
        {
          "name": "_value",
          "type": "uint256"
        }
      ],
      "name": "bet",
      "outputs": [
        {
          "name": "",
          "type": "uint256"
        },
        {
          "name": "",
          "type": "uint256"
        }
      ],
      "payable": false,
      "stateMutability": "nonpayable",
      "type": "function"
    }
  ],
  "bytecode": "0x6060604052341561000f57600080fd5b6040805190810160405280601481526020017f52616e646f6d204c6f747465727920546f6b656e0000000000000000000000008152506040805190810160405280600381526020017f524c5400000000000000000000000000000000000000000000000000000000008152506012633b9aca006064336000806101000a81548173ffffffffffffffffffffffffffffffffffffffff021916908373ffffffffffffffffffffffffffffffffffffffff16021790555084600190805190602001906100da9291906101a1565b5083600290805190602001906100f19291906101a1565b5082600360006101000a81548160ff021916908360ff16021790555081600660008060009054906101000a900473ffffffffffffffffffffffffffffffffffffffff1673ffffffffffffffffffffffffffffffffffffffff1673ffffffffffffffffffffffffffffffffffffffff1681526020019081526020016000208190555080600481905550600360009054906101000a900460ff1660ff16600a0a82026005819055505050505050610246565b828054600181600116156101000203166002900490600052602060002090601f016020900481019282601f106101e257805160ff1916838001178555610210565b82800160010185558215610210579182015b8281111561020f5782518255916020019190600101906101f4565b5b50905061021d9190610221565b5090565b61024391905b8082111561023f576000816000905550600101610227565b5090565b90565b610e6e80620002566000396000f3006060604052600436106100ba576000357c0100000000000000000000000000000000000000000000000000000000900463ffffffff16806306fdde031461015857806318160ddd146101e6578063313ce5671461020f5780634288d7591461023e57806366adeb8c1461028b57806370a08231146102a05780637365870b146102ed5780638da5cb5b1461032b57806395d89b4114610380578063a3908e1b1461040e578063baf2c27914610445578063e6d66ac81461046e575b600080341115156100ca57600080fd5b6100d3346104f1565b90506100df33826104ff565b5050507ff237556eb2611f4a0d74784e3b0bb3bbaf6bebf023a045bf8e78bd5d5f0c8972333483604051808473ffffffffffffffffffffffffffffffffffffffff1673ffffffffffffffffffffffffffffffffffffffff168152602001838152602001828152602001935050505060405180910390a150005b341561016357600080fd5b61016b61053d565b6040518080602001828103825283818151815260200191508051906020019080838360005b838110156101ab578082015181840152602081019050610190565b50505050905090810190601f1680156101d85780820380516001836020036101000a031916815260200191505b509250505060405180910390f35b34156101f157600080fd5b6101f96105e5565b6040518082815260200191505060405180910390f35b341561021a57600080fd5b6102226105ef565b604051808260ff1660ff16815260200191505060405180910390f35b341561024957600080fd5b610275600480803573ffffffffffffffffffffffffffffffffffffffff16906020019091905050610606565b6040518082815260200191505060405180910390f35b341561029657600080fd5b61029e61064f565b005b34156102ab57600080fd5b6102d7600480803573ffffffffffffffffffffffffffffffffffffffff169060200190919050506107c2565b6040518082815260200191505060405180910390f35b34156102f857600080fd5b61030e600480803590602001909190505061080b565b604051808381526020018281526020019250505060405180910390f35b341561033657600080fd5b61033e610a9c565b604051808273ffffffffffffffffffffffffffffffffffffffff1673ffffffffffffffffffffffffffffffffffffffff16815260200191505060405180910390f35b341561038b57600080fd5b610393610ac5565b6040518080602001828103825283818151815260200191508051906020019080838360005b838110156103d35780820151818401526020810190506103b8565b50505050905090810190601f1680156104005780820380516001836020036101000a031916815260200191505b509250505060405180910390f35b341561041957600080fd5b61042f60048080359060200190919050506104f1565b6040518082815260200191505060405180910390f35b341561045057600080fd5b610458610b6d565b6040518082815260200191505060405180910390f35b341561047957600080fd5b6104cd600480803573ffffffffffffffffffffffffffffffffffffffff1690602001909190803573ffffffffffffffffffffffffffffffffffffffff16906020019091908035906020019091905050610b77565b60405180848152602001838152602001828152602001935050505060405180910390f35b600060045482029050919050565b60008060006105306000809054906101000a900473ffffffffffffffffffffffffffffffffffffffff168686610bec565b9250925092509250925092565b610545610e2e565b60018054600181600116156101000203166002900480601f0160208091040260200160405190810160405280929190818152602001828054600181600116156101000203166002900480156105db5780601f106105b0576101008083540402835291602001916105db565b820191906000526020600020905b8154815290600101906020018083116105be57829003601f168201915b5050505050905090565b6000600554905090565b6000600360009054906101000a900460ff16905090565b6000600760008373ffffffffffffffffffffffffffffffffffffffff1673ffffffffffffffffffffffffffffffffffffffff168152602001908152602001600020549050919050565b6000809054906101000a900473ffffffffffffffffffffffffffffffffffffffff1673ffffffffffffffffffffffffffffffffffffffff163373ffffffffffffffffffffffffffffffffffffffff1614156107c0576000809054906101000a900473ffffffffffffffffffffffffffffffffffffffff1673ffffffffffffffffffffffffffffffffffffffff166108fc3073ffffffffffffffffffffffffffffffffffffffff16319081150290604051600060405180830381858888f19350505050151561071c57600080fd5b7fa57e0e293b767f27b6a3f4273eba7fed5d1346568830e0e0637f8ba5757ddb7b6000809054906101000a900473ffffffffffffffffffffffffffffffffffffffff163073ffffffffffffffffffffffffffffffffffffffff1631604051808373ffffffffffffffffffffffffffffffffffffffff1673ffffffffffffffffffffffffffffffffffffffff1681526020018281526020019250505060405180910390a15b565b6000600660008373ffffffffffffffffffffffffffffffffffffffff1673ffffffffffffffffffffffffffffffffffffffff168152602001908152602001600020549050919050565b60008082600660003373ffffffffffffffffffffffffffffffffffffffff1673ffffffffffffffffffffffffffffffffffffffff168152602001908152602001600020541015151561085c57600080fd5b82600760003373ffffffffffffffffffffffffffffffffffffffff1673ffffffffffffffffffffffffffffffffffffffff1681526020019081526020016000206000828254019250508190555082600660003373ffffffffffffffffffffffffffffffffffffffff1673ffffffffffffffffffffffffffffffffffffffff168152602001908152602001600020600082825403925050819055506000600860003373ffffffffffffffffffffffffffffffffffffffff1673ffffffffffffffffffffffffffffffffffffffff16815260200190815260200160002060009054906101000a900460ff1660ff161415610a13576001600860003373ffffffffffffffffffffffffffffffffffffffff1673ffffffffffffffffffffffffffffffffffffffff16815260200190815260200160002060006101000a81548160ff021916908360ff1602179055506001600960003373ffffffffffffffffffffffffffffffffffffffff1673ffffffffffffffffffffffffffffffffffffffff16815260200190815260200160002060008282829054906101000a900460ff160192506101000a81548160ff021916908360ff1602179055505b600760003373ffffffffffffffffffffffffffffffffffffffff1673ffffffffffffffffffffffffffffffffffffffff16815260200190815260200160002054600660003373ffffffffffffffffffffffffffffffffffffffff1673ffffffffffffffffffffffffffffffffffffffff1681526020019081526020016000205491509150915091565b60008060009054906101000a900473ffffffffffffffffffffffffffffffffffffffff16905090565b610acd610e2e565b60028054600181600116156101000203166002900480601f016020809104026020016040519081016040528092919081815260200182805460018160011615610100020316600290048015610b635780601f10610b3857610100808354040283529160200191610b63565b820191906000526020600020905b815481529060010190602001808311610b4657829003601f168201915b5050505050905090565b6000600454905090565b60008060008060009054906101000a900473ffffffffffffffffffffffffffffffffffffffff1673ffffffffffffffffffffffffffffffffffffffff163373ffffffffffffffffffffffffffffffffffffffff161415610be357610bdc868686610bec565b9250925092505b93509350939050565b6000806000808573ffffffffffffffffffffffffffffffffffffffff1614151515610c1657600080fd5b8473ffffffffffffffffffffffffffffffffffffffff168673ffffffffffffffffffffffffffffffffffffffff1614151515610c5157600080fd5b83600660008873ffffffffffffffffffffffffffffffffffffffff1673ffffffffffffffffffffffffffffffffffffffff1681526020019081526020016000205410151515610c9f57600080fd5b83600660008873ffffffffffffffffffffffffffffffffffffffff1673ffffffffffffffffffffffffffffffffffffffff1681526020019081526020016000206000828254039250508190555083600660008773ffffffffffffffffffffffffffffffffffffffff1673ffffffffffffffffffffffffffffffffffffffff168152602001908152602001600020600082825401925050819055508473ffffffffffffffffffffffffffffffffffffffff168673ffffffffffffffffffffffffffffffffffffffff167f3e17400f2b999181d4145593666ede04fe102fed6cf79eb7f9a1ca5c1fa1e65d866040518082815260200191505060405180910390a383600660008873ffffffffffffffffffffffffffffffffffffffff1673ffffffffffffffffffffffffffffffffffffffff16815260200190815260200160002054600660008873ffffffffffffffffffffffffffffffffffffffff1673ffffffffffffffffffffffffffffffffffffffff1681526020019081526020016000205492509250925093509350939050565b6020604051908101604052806000815250905600a165627a7a72305820241b07ebcfdfb85d9d3e286cd8948f38a6866c4903b496484da17d8a3651bd420029",
  "source": "pragma solidity ^0.4.19;\n\nimport './ICOToken.sol';\n\ncontract RandomLotteryToken is ICOToken {\n\n  mapping (address => uint256) _bets;\n  mapping (address => uint8) _todayBets;\n  mapping (address => uint8) _nbBets;\n\n  function RandomLotteryToken()\n    ICOToken('Random Lottery Token', 'RLT', 18, 10 ** 9, 100) public {}\n\n  function betOf(address _addr) public view returns (uint256) { return _bets[_addr]; }\n\n  function bet(uint256 _value) public returns (uint256, uint256) {\n    require(_balances[msg.sender] >= _value);\n    _bets[msg.sender] += _value;\n    _balances[msg.sender] -= _value;\n    if (_todayBets[msg.sender] == 0) {\n      _todayBets[msg.sender] = 1;\n      _nbBets[msg.sender] += 1;\n    }\n    return (_bets[msg.sender], _balances[msg.sender]);\n  }\n\n}\n",
  "sourcePath": "/home/brice/ico-random-lottery-token/contracts/RandomLotteryToken.sol",
  "compiler": {
    "name": "solc",
    "version": "0.4.19+commit.c4cbbb05.Emscripten.clang"
  },
  "schemaVersion": "2.0.0",
  "updatedAt": "2018-03-08T18:43:41.886Z"
}