{
  "contractName": "RandomLotteryToken",
  "abi": [
    {
      "constant": true,
      "inputs": [],
      "name": "name",
      "outputs": [
        {
          "name": "",
          "type": "string"
        }
      ],
      "payable": false,
      "stateMutability": "view",
      "type": "function"
    },
    {
      "constant": true,
      "inputs": [],
      "name": "totalSupply",
      "outputs": [
        {
          "name": "",
          "type": "uint256"
        }
      ],
      "payable": false,
      "stateMutability": "view",
      "type": "function"
    },
    {
      "constant": true,
      "inputs": [],
      "name": "decimals",
      "outputs": [
        {
          "name": "",
          "type": "uint8"
        }
      ],
      "payable": false,
      "stateMutability": "view",
      "type": "function"
    },
    {
      "constant": true,
      "inputs": [
        {
          "name": "_addr",
          "type": "address"
        }
      ],
      "name": "balanceOf",
      "outputs": [
        {
          "name": "",
          "type": "uint256"
        }
      ],
      "payable": false,
      "stateMutability": "view",
      "type": "function"
    },
    {
      "constant": true,
      "inputs": [],
      "name": "owner",
      "outputs": [
        {
          "name": "",
          "type": "address"
        }
      ],
      "payable": false,
      "stateMutability": "view",
      "type": "function"
    },
    {
      "constant": true,
      "inputs": [],
      "name": "symbol",
      "outputs": [
        {
          "name": "",
          "type": "string"
        }
      ],
      "payable": false,
      "stateMutability": "view",
      "type": "function"
    },
    {
      "constant": true,
      "inputs": [
        {
          "name": "_value",
          "type": "uint256"
        }
      ],
      "name": "convert",
      "outputs": [
        {
          "name": "",
          "type": "uint256"
        }
      ],
      "payable": false,
      "stateMutability": "view",
      "type": "function"
    },
    {
      "constant": true,
      "inputs": [],
      "name": "convertRatio",
      "outputs": [
        {
          "name": "",
          "type": "uint256"
        }
      ],
      "payable": false,
      "stateMutability": "view",
      "type": "function"
    },
    {
      "constant": false,
      "inputs": [
        {
          "name": "_from",
          "type": "address"
        },
        {
          "name": "_to",
          "type": "address"
        },
        {
          "name": "_value",
          "type": "uint256"
        }
      ],
      "name": "sendTokens",
      "outputs": [
        {
          "name": "",
          "type": "uint256"
        }
      ],
      "payable": false,
      "stateMutability": "nonpayable",
      "type": "function"
    },
    {
      "constant": false,
      "inputs": [],
      "name": "removeFunds",
      "outputs": [],
      "payable": false,
      "stateMutability": "nonpayable",
      "type": "function"
    },
    {
      "inputs": [],
      "payable": false,
      "stateMutability": "nonpayable",
      "type": "constructor"
    },
    {
      "payable": true,
      "stateMutability": "payable",
      "type": "fallback"
    },
    {
      "anonymous": false,
      "inputs": [
        {
          "indexed": true,
          "name": "_from",
          "type": "address"
        },
        {
          "indexed": true,
          "name": "_to",
          "type": "address"
        },
        {
          "indexed": false,
          "name": "_value",
          "type": "uint256"
        }
      ],
      "name": "OnTokensTransfered",
      "type": "event"
    },
    {
      "anonymous": false,
      "inputs": [
        {
          "indexed": false,
          "name": "_from",
          "type": "address"
        },
        {
          "indexed": false,
          "name": "_eth",
          "type": "uint256"
        },
        {
          "indexed": false,
          "name": "_tokens",
          "type": "uint256"
        }
      ],
      "name": "OnFundsReceived",
      "type": "event"
    },
    {
      "anonymous": false,
      "inputs": [
        {
          "indexed": false,
          "name": "_balance",
          "type": "uint256"
        }
      ],
      "name": "OnFundsRemoved",
      "type": "event"
    },
    {
      "constant": true,
      "inputs": [
        {
          "name": "_addr",
          "type": "address"
        }
      ],
      "name": "betOf",
      "outputs": [
        {
          "name": "",
          "type": "uint256"
        }
      ],
      "payable": false,
      "stateMutability": "view",
      "type": "function"
    },
    {
      "constant": false,
      "inputs": [
        {
          "name": "_value",
          "type": "uint256"
        }
      ],
      "name": "bet",
      "outputs": [
        {
          "name": "",
          "type": "uint256"
        },
        {
          "name": "",
          "type": "uint256"
        }
      ],
      "payable": false,
      "stateMutability": "nonpayable",
      "type": "function"
    }
  ],
  "bytecode": "0x6060604052341561000f57600080fd5b6040805190810160405280601481526020017f52616e646f6d204c6f747465727920546f6b656e0000000000000000000000008152506040805190810160405280600381526020017f524c5400000000000000000000000000000000000000000000000000000000008152506012633b9aca006064336000806101000a81548173ffffffffffffffffffffffffffffffffffffffff021916908373ffffffffffffffffffffffffffffffffffffffff16021790555084600190805190602001906100da9291906101a1565b5083600290805190602001906100f19291906101a1565b5082600360006101000a81548160ff021916908360ff16021790555081600660008060009054906101000a900473ffffffffffffffffffffffffffffffffffffffff1673ffffffffffffffffffffffffffffffffffffffff1673ffffffffffffffffffffffffffffffffffffffff1681526020019081526020016000208190555080600481905550600360009054906101000a900460ff1660ff16600a0a82026005819055505050505050610246565b828054600181600116156101000203166002900490600052602060002090601f016020900481019282601f106101e257805160ff1916838001178555610210565b82800160010185558215610210579182015b8281111561020f5782518255916020019190600101906101f4565b5b50905061021d9190610221565b5090565b61024391905b8082111561023f576000816000905550600101610227565b5090565b90565b610cb5806102556000396000f3006060604052600436106100ba576000357c0100000000000000000000000000000000000000000000000000000000900463ffffffff16806306fdde031461015657806318160ddd146101e4578063313ce5671461020d5780634288d7591461023c57806370a08231146102895780637365870b146102d65780638da5cb5b1461031457806395d89b4114610369578063a3908e1b146103f7578063baf2c2791461042e578063e6d66ac814610457578063feac51f5146104cc575b600080341115156100ca57600080fd5b6100d3346104e1565b90506100df33826104ef565b507ff237556eb2611f4a0d74784e3b0bb3bbaf6bebf023a045bf8e78bd5d5f0c8972333483604051808473ffffffffffffffffffffffffffffffffffffffff1673ffffffffffffffffffffffffffffffffffffffff168152602001838152602001828152602001935050505060405180910390a150005b341561016157600080fd5b610169610525565b6040518080602001828103825283818151815260200191508051906020019080838360005b838110156101a957808201518184015260208101905061018e565b50505050905090810190601f1680156101d65780820380516001836020036101000a031916815260200191505b509250505060405180910390f35b34156101ef57600080fd5b6101f76105cd565b6040518082815260200191505060405180910390f35b341561021857600080fd5b6102206105d7565b604051808260ff1660ff16815260200191505060405180910390f35b341561024757600080fd5b610273600480803573ffffffffffffffffffffffffffffffffffffffff169060200190919050506105ee565b6040518082815260200191505060405180910390f35b341561029457600080fd5b6102c0600480803573ffffffffffffffffffffffffffffffffffffffff16906020019091905050610637565b6040518082815260200191505060405180910390f35b34156102e157600080fd5b6102f76004808035906020019091905050610680565b604051808381526020018281526020019250505060405180910390f35b341561031f57600080fd5b6103276107f4565b604051808273ffffffffffffffffffffffffffffffffffffffff1673ffffffffffffffffffffffffffffffffffffffff16815260200191505060405180910390f35b341561037457600080fd5b61037c61081d565b6040518080602001828103825283818151815260200191508051906020019080838360005b838110156103bc5780820151818401526020810190506103a1565b50505050905090810190601f1680156103e95780820380516001836020036101000a031916815260200191505b509250505060405180910390f35b341561040257600080fd5b61041860048080359060200190919050506104e1565b6040518082815260200191505060405180910390f35b341561043957600080fd5b6104416108c5565b6040518082815260200191505060405180910390f35b341561046257600080fd5b6104b6600480803573ffffffffffffffffffffffffffffffffffffffff1690602001909190803573ffffffffffffffffffffffffffffffffffffffff169060200190919080359060200190919050506108cf565b6040518082815260200191505060405180910390f35b34156104d757600080fd5b6104df61093b565b005b600060045482029050919050565b600061051d6000809054906101000a900473ffffffffffffffffffffffffffffffffffffffff168484610abf565b905092915050565b61052d610c75565b60018054600181600116156101000203166002900480601f0160208091040260200160405190810160405280929190818152602001828054600181600116156101000203166002900480156105c35780601f10610598576101008083540402835291602001916105c3565b820191906000526020600020905b8154815290600101906020018083116105a657829003601f168201915b5050505050905090565b6000600554905090565b6000600360009054906101000a900460ff16905090565b6000600760008373ffffffffffffffffffffffffffffffffffffffff1673ffffffffffffffffffffffffffffffffffffffff168152602001908152602001600020549050919050565b6000600660008373ffffffffffffffffffffffffffffffffffffffff1673ffffffffffffffffffffffffffffffffffffffff168152602001908152602001600020549050919050565b60008082600660003373ffffffffffffffffffffffffffffffffffffffff1673ffffffffffffffffffffffffffffffffffffffff16815260200190815260200160002054101515156106d157600080fd5b82600760003373ffffffffffffffffffffffffffffffffffffffff1673ffffffffffffffffffffffffffffffffffffffff1681526020019081526020016000206000828254019250508190555082600660003373ffffffffffffffffffffffffffffffffffffffff1673ffffffffffffffffffffffffffffffffffffffff16815260200190815260200160002060008282540392505081905550600760003373ffffffffffffffffffffffffffffffffffffffff1673ffffffffffffffffffffffffffffffffffffffff16815260200190815260200160002054600660003373ffffffffffffffffffffffffffffffffffffffff1673ffffffffffffffffffffffffffffffffffffffff1681526020019081526020016000205491509150915091565b60008060009054906101000a900473ffffffffffffffffffffffffffffffffffffffff16905090565b610825610c75565b60028054600181600116156101000203166002900480601f0160208091040260200160405190810160405280929190818152602001828054600181600116156101000203166002900480156108bb5780601f10610890576101008083540402835291602001916108bb565b820191906000526020600020905b81548152906001019060200180831161089e57829003601f168201915b5050505050905090565b6000600454905090565b60008060009054906101000a900473ffffffffffffffffffffffffffffffffffffffff1673ffffffffffffffffffffffffffffffffffffffff163373ffffffffffffffffffffffffffffffffffffffff16141561093457610931848484610abf565b90505b9392505050565b6000809054906101000a900473ffffffffffffffffffffffffffffffffffffffff1673ffffffffffffffffffffffffffffffffffffffff163373ffffffffffffffffffffffffffffffffffffffff161415610abd576000600660008060009054906101000a900473ffffffffffffffffffffffffffffffffffffffff1673ffffffffffffffffffffffffffffffffffffffff1673ffffffffffffffffffffffffffffffffffffffff168152602001908152602001600020819055506000809054906101000a900473ffffffffffffffffffffffffffffffffffffffff1673ffffffffffffffffffffffffffffffffffffffff166108fc3073ffffffffffffffffffffffffffffffffffffffff16319081150290604051600060405180830381858888f193505050501515610a6e57600080fd5b7f833bb8f2f47dd33ce1c8da936fb158a00c66a7f57b3ed16f054e9f3bb6e60d783073ffffffffffffffffffffffffffffffffffffffff16316040518082815260200191505060405180910390a15b565b6000808373ffffffffffffffffffffffffffffffffffffffff1614158015610b1357508273ffffffffffffffffffffffffffffffffffffffff168473ffffffffffffffffffffffffffffffffffffffff1614155b1515610b1e57600080fd5b81600660008673ffffffffffffffffffffffffffffffffffffffff1673ffffffffffffffffffffffffffffffffffffffff1681526020019081526020016000205410151515610b6c57600080fd5b81600660008673ffffffffffffffffffffffffffffffffffffffff1673ffffffffffffffffffffffffffffffffffffffff1681526020019081526020016000206000828254039250508190555081600660008573ffffffffffffffffffffffffffffffffffffffff1673ffffffffffffffffffffffffffffffffffffffff168152602001908152602001600020600082825401925050819055508273ffffffffffffffffffffffffffffffffffffffff168473ffffffffffffffffffffffffffffffffffffffff167f3e17400f2b999181d4145593666ede04fe102fed6cf79eb7f9a1ca5c1fa1e65d846040518082815260200191505060405180910390a38190509392505050565b6020604051908101604052806000815250905600a165627a7a723058201fa58bef99c1748c1ae27febb9ced9916995f37d9195fd107737a646642976130029",
  "source": "pragma solidity ^0.4.19;\n\nimport './ICOToken.sol';\n\ncontract RandomLotteryToken is ICOToken {\n\n  mapping (address => uint256) _bets;\n\n  function RandomLotteryToken()\n    ICOToken('Random Lottery Token', 'RLT', 18, 10 ** 9, 100) public {}\n\n  function betOf(address _addr) public view returns (uint256) { return _bets[_addr]; }\n\n  function bet(uint256 _value) public returns (uint256, uint256) {\n    require(_balances[msg.sender] >= _value);\n    _bets[msg.sender] += _value;\n    _balances[msg.sender] -= _value;\n    return (_bets[msg.sender], _balances[msg.sender]);\n  }\n\n}\n",
  "sourcePath": "/home/brice/ico-random-lottery-token/contracts/RandomLotteryToken.sol",
  "compiler": {
    "name": "solc",
    "version": "0.4.19+commit.c4cbbb05.Emscripten.clang"
  },
  "schemaVersion": "2.0.0",
  "updatedAt": "2018-03-08T13:25:11.181Z"
}