{
  "contractName": "RandomLotteryToken",
  "abi": [
    {
      "inputs": [
        {
          "name": "_initialSupply",
          "type": "uint256"
        }
      ],
      "payable": false,
      "stateMutability": "nonpayable",
      "type": "constructor"
    },
    {
      "anonymous": false,
      "inputs": [
        {
          "indexed": true,
          "name": "_from",
          "type": "address"
        },
        {
          "indexed": true,
          "name": "_to",
          "type": "address"
        },
        {
          "indexed": false,
          "name": "_value",
          "type": "uint256"
        },
        {
          "indexed": false,
          "name": "_status",
          "type": "uint8"
        }
      ],
      "name": "Transfer",
      "type": "event"
    },
    {
      "constant": true,
      "inputs": [],
      "name": "owner",
      "outputs": [
        {
          "name": "",
          "type": "address"
        }
      ],
      "payable": false,
      "stateMutability": "view",
      "type": "function"
    },
    {
      "constant": true,
      "inputs": [],
      "name": "name",
      "outputs": [
        {
          "name": "",
          "type": "string"
        }
      ],
      "payable": false,
      "stateMutability": "view",
      "type": "function"
    },
    {
      "constant": true,
      "inputs": [],
      "name": "symbol",
      "outputs": [
        {
          "name": "",
          "type": "string"
        }
      ],
      "payable": false,
      "stateMutability": "view",
      "type": "function"
    },
    {
      "constant": true,
      "inputs": [],
      "name": "decimals",
      "outputs": [
        {
          "name": "",
          "type": "uint8"
        }
      ],
      "payable": false,
      "stateMutability": "view",
      "type": "function"
    },
    {
      "constant": true,
      "inputs": [],
      "name": "totalSupply",
      "outputs": [
        {
          "name": "",
          "type": "uint256"
        }
      ],
      "payable": false,
      "stateMutability": "view",
      "type": "function"
    },
    {
      "constant": true,
      "inputs": [],
      "name": "betDate",
      "outputs": [
        {
          "name": "",
          "type": "uint256"
        }
      ],
      "payable": false,
      "stateMutability": "view",
      "type": "function"
    },
    {
      "constant": true,
      "inputs": [
        {
          "name": "_addr",
          "type": "address"
        }
      ],
      "name": "betOf",
      "outputs": [
        {
          "name": "",
          "type": "uint256"
        }
      ],
      "payable": false,
      "stateMutability": "view",
      "type": "function"
    },
    {
      "constant": true,
      "inputs": [
        {
          "name": "_addr",
          "type": "address"
        }
      ],
      "name": "balanceOf",
      "outputs": [
        {
          "name": "",
          "type": "uint256"
        }
      ],
      "payable": false,
      "stateMutability": "view",
      "type": "function"
    },
    {
      "constant": false,
      "inputs": [
        {
          "name": "_from",
          "type": "address"
        },
        {
          "name": "_to",
          "type": "address"
        },
        {
          "name": "_value",
          "type": "uint256"
        }
      ],
      "name": "transferFrom",
      "outputs": [
        {
          "name": "",
          "type": "bool"
        }
      ],
      "payable": false,
      "stateMutability": "nonpayable",
      "type": "function"
    },
    {
      "constant": false,
      "inputs": [
        {
          "name": "_to",
          "type": "address"
        },
        {
          "name": "_value",
          "type": "uint256"
        }
      ],
      "name": "transfer",
      "outputs": [
        {
          "name": "",
          "type": "bool"
        }
      ],
      "payable": false,
      "stateMutability": "nonpayable",
      "type": "function"
    },
    {
      "constant": true,
      "inputs": [
        {
          "name": "_value",
          "type": "uint256"
        }
      ],
      "name": "convert",
      "outputs": [
        {
          "name": "",
          "type": "uint256"
        }
      ],
      "payable": false,
      "stateMutability": "view",
      "type": "function"
    },
    {
      "constant": false,
      "inputs": [],
      "name": "receivePayment",
      "outputs": [
        {
          "name": "",
          "type": "uint256"
        }
      ],
      "payable": true,
      "stateMutability": "payable",
      "type": "function"
    },
    {
      "constant": false,
      "inputs": [
        {
          "name": "_value",
          "type": "uint256"
        }
      ],
      "name": "bet",
      "outputs": [],
      "payable": false,
      "stateMutability": "nonpayable",
      "type": "function"
    },
    {
      "constant": false,
      "inputs": [],
      "name": "removeFunds",
      "outputs": [],
      "payable": false,
      "stateMutability": "nonpayable",
      "type": "function"
    }
  ],
  "bytecode": "0x606060405260646000556040805190810160405280601481526020017f52616e646f6d204c6f747465727920546f6b656e000000000000000000000000815250600190805190602001906100549291906101b6565b506040805190810160405280600381526020017f524c540000000000000000000000000000000000000000000000000000000000815250600290805190602001906100a09291906101b6565b506012600360006101000a81548160ff021916908360ff16021790555034156100c857600080fd5b604051602080610fab8339810160405280805190602001909190505033600360016101000a81548173ffffffffffffffffffffffffffffffffffffffff021916908373ffffffffffffffffffffffffffffffffffffffff1602179055508060066000600360019054906101000a900473ffffffffffffffffffffffffffffffffffffffff1673ffffffffffffffffffffffffffffffffffffffff1673ffffffffffffffffffffffffffffffffffffffff16815260200190815260200160002081905550600360009054906101000a900460ff1660ff16600a0a8102600481905550426005819055505061025b565b828054600181600116156101000203166002900490600052602060002090601f016020900481019282601f106101f757805160ff1916838001178555610225565b82800160010185558215610225579182015b82811115610224578251825591602001919060010190610209565b5b5090506102329190610236565b5090565b61025891905b8082111561025457600081600090555060010161023c565b5090565b90565b610d418061026a6000396000f3006060604052600436106100d0576000357c0100000000000000000000000000000000000000000000000000000000900463ffffffff16806306fdde03146100d557806318160ddd1461016357806323b872dd1461018c578063313ce567146102055780634288d7591461023457806370a08231146102815780637365870b146102ce578063835c19f3146102f15780638da5cb5b1461030f57806395d89b4114610364578063a3908e1b146103f2578063a9059cbb14610429578063e1b3eea514610483578063feac51f5146104ac575b600080fd5b34156100e057600080fd5b6100e86104c1565b6040518080602001828103825283818151815260200191508051906020019080838360005b8381101561012857808201518184015260208101905061010d565b50505050905090810190601f1680156101555780820380516001836020036101000a031916815260200191505b509250505060405180910390f35b341561016e57600080fd5b610176610569565b6040518082815260200191505060405180910390f35b341561019757600080fd5b6101eb600480803573ffffffffffffffffffffffffffffffffffffffff1690602001909190803573ffffffffffffffffffffffffffffffffffffffff16906020019091908035906020019091905050610573565b604051808215151515815260200191505060405180910390f35b341561021057600080fd5b6102186105e0565b604051808260ff1660ff16815260200191505060405180910390f35b341561023f57600080fd5b61026b600480803573ffffffffffffffffffffffffffffffffffffffff169060200190919050506105f7565b6040518082815260200191505060405180910390f35b341561028c57600080fd5b6102b8600480803573ffffffffffffffffffffffffffffffffffffffff16906020019091905050610640565b6040518082815260200191505060405180910390f35b34156102d957600080fd5b6102ef6004808035906020019091905050610689565b005b6102f9610774565b6040518082815260200191505060405180910390f35b341561031a57600080fd5b6103226108c4565b604051808273ffffffffffffffffffffffffffffffffffffffff1673ffffffffffffffffffffffffffffffffffffffff16815260200191505060405180910390f35b341561036f57600080fd5b6103776108ee565b6040518080602001828103825283818151815260200191508051906020019080838360005b838110156103b757808201518184015260208101905061039c565b50505050905090810190601f1680156103e45780820380516001836020036101000a031916815260200191505b509250505060405180910390f35b34156103fd57600080fd5b6104136004808035906020019091905050610996565b6040518082815260200191505060405180910390f35b341561043457600080fd5b610469600480803573ffffffffffffffffffffffffffffffffffffffff169060200190919080359060200190919050506109a3565b604051808215151515815260200191505060405180910390f35b341561048e57600080fd5b6104966109da565b6040518082815260200191505060405180910390f35b34156104b757600080fd5b6104bf6109e4565b005b6104c9610d01565b60018054600181600116156101000203166002900480601f01602080910402602001604051908101604052809291908181526020018280546001816001161561010002031660029004801561055f5780601f106105345761010080835404028352916020019161055f565b820191906000526020600020905b81548152906001019060200180831161054257829003601f168201915b5050505050905090565b6000600454905090565b6000600360019054906101000a900473ffffffffffffffffffffffffffffffffffffffff1673ffffffffffffffffffffffffffffffffffffffff163373ffffffffffffffffffffffffffffffffffffffff1614156105d9576105d6848484610ab6565b90505b9392505050565b6000600360009054906101000a900460ff16905090565b6000600760008373ffffffffffffffffffffffffffffffffffffffff1673ffffffffffffffffffffffffffffffffffffffff168152602001908152602001600020549050919050565b6000600660008373ffffffffffffffffffffffffffffffffffffffff1673ffffffffffffffffffffffffffffffffffffffff168152602001908152602001600020549050919050565b80600660003373ffffffffffffffffffffffffffffffffffffffff1673ffffffffffffffffffffffffffffffffffffffff16815260200190815260200160002054101515156106d757600080fd5b80600760003373ffffffffffffffffffffffffffffffffffffffff1673ffffffffffffffffffffffffffffffffffffffff1681526020019081526020016000206000828254019250508190555080600660003373ffffffffffffffffffffffffffffffffffffffff1673ffffffffffffffffffffffffffffffffffffffff1681526020019081526020016000206000828254039250508190555050565b60008060003411151561078657600080fd5b61078f34610996565b90508060066000600360019054906101000a900473ffffffffffffffffffffffffffffffffffffffff1673ffffffffffffffffffffffffffffffffffffffff1673ffffffffffffffffffffffffffffffffffffffff168152602001908152602001600020541015151561080157600080fd5b8060066000600360019054906101000a900473ffffffffffffffffffffffffffffffffffffffff1673ffffffffffffffffffffffffffffffffffffffff1673ffffffffffffffffffffffffffffffffffffffff1681526020019081526020016000206000828254039250508190555080600660003373ffffffffffffffffffffffffffffffffffffffff1673ffffffffffffffffffffffffffffffffffffffff168152602001908152602001600020600082825401925050819055508091505090565b6000600360019054906101000a900473ffffffffffffffffffffffffffffffffffffffff16905090565b6108f6610d01565b60028054600181600116156101000203166002900480601f01602080910402602001604051908101604052809291908181526020018280546001816001161561010002031660029004801561098c5780601f106109615761010080835404028352916020019161098c565b820191906000526020600020905b81548152906001019060200180831161096f57829003601f168201915b5050505050905090565b6000805482029050919050565b60006109d2600360019054906101000a900473ffffffffffffffffffffffffffffffffffffffff168484610ab6565b905092915050565b6000600554905090565b600360019054906101000a900473ffffffffffffffffffffffffffffffffffffffff1673ffffffffffffffffffffffffffffffffffffffff163373ffffffffffffffffffffffffffffffffffffffff161415610ab457600360019054906101000a900473ffffffffffffffffffffffffffffffffffffffff1673ffffffffffffffffffffffffffffffffffffffff166108fc3073ffffffffffffffffffffffffffffffffffffffff16319081150290604051600060405180830381858888f193505050501515610ab357600080fd5b5b565b60008273ffffffffffffffffffffffffffffffffffffffff168473ffffffffffffffffffffffffffffffffffffffff167fac60cf27dc4f1617415f958a9454e62dfc38586b526185b4d97ebc6f02522b1684600060405180838152602001826001811115610b2057fe5b60ff1681526020019250505060405180910390a360008373ffffffffffffffffffffffffffffffffffffffff1614158015610b8757508273ffffffffffffffffffffffffffffffffffffffff168473ffffffffffffffffffffffffffffffffffffffff1614155b1515610b9257600080fd5b81600660008673ffffffffffffffffffffffffffffffffffffffff1673ffffffffffffffffffffffffffffffffffffffff1681526020019081526020016000205410151515610be057600080fd5b81600660008673ffffffffffffffffffffffffffffffffffffffff1673ffffffffffffffffffffffffffffffffffffffff1681526020019081526020016000206000828254039250508190555081600660008573ffffffffffffffffffffffffffffffffffffffff1673ffffffffffffffffffffffffffffffffffffffff168152602001908152602001600020600082825401925050819055508273ffffffffffffffffffffffffffffffffffffffff168473ffffffffffffffffffffffffffffffffffffffff167fac60cf27dc4f1617415f958a9454e62dfc38586b526185b4d97ebc6f02522b1684600160405180838152602001826001811115610ce257fe5b60ff1681526020019250505060405180910390a3600190509392505050565b6020604051908101604052806000815250905600a165627a7a7230582045faea33ea0ee4ac473c315e6f0dcc9ce86f3ad6d0254fb9a9dfae609fa178000029",
  "source": "pragma solidity ^0.4.19;\n\ncontract RandomLotteryToken {\n\n  enum TxStatus { Pending, Done }\n\n  // let's say for now that 1 ETH <=> 100 RLT\n  uint256 internal CONVERTION_RATIO = 100;\n\n  string _name = 'Random Lottery Token';\n  string _symbol = 'RLT';\n  uint8 _decimals = 18;\n\n  address _owner;\n  uint256 _totalSupply;\n  uint _betDate;\n\n  mapping (address => uint256) _balances;\n  mapping (address => uint256) _bets;\n\n  event Transfer(address indexed _from, address indexed _to, uint256 _value, TxStatus _status);\n\n  modifier restricted() {\n    if (msg.sender == _owner) _;\n  }\n\n  function RandomLotteryToken(uint256 _initialSupply) public {\n    _owner = msg.sender;\n    _balances[_owner] = _initialSupply;\n    _totalSupply = _initialSupply * (10 ** uint256(_decimals));\n    _betDate = block.timestamp;\n  }\n\n  function owner() public constant returns (address) { return _owner; }\n  function name() public constant returns (string) { return _name; }\n  function symbol() public constant returns (string) { return _symbol; }\n  function decimals() public constant returns (uint8) { return _decimals; }\n  function totalSupply() public constant returns (uint256) { return _totalSupply; }\n\n  function betDate() public view returns (uint) { return _betDate; }\n  function betOf(address _addr) public view returns (uint256) { return _bets[_addr]; }\n  function balanceOf(address _addr) public view returns (uint256) { return _balances[_addr]; }\n\n  function _transferFrom(address _from, address _to, uint256 _value) internal returns (bool) {\n    Transfer(_from, _to, _value, TxStatus.Pending);\n    require(_to != 0x0 && _from != _to);\n    require(_balances[_from] >= _value);\n    _balances[_from] -= _value;\n    _balances[_to] += _value;\n    Transfer(_from, _to, _value, TxStatus.Done);\n    return true;\n  }\n\n  function transferFrom(address _from, address _to, uint256 _value) public restricted returns (bool) {\n    return _transferFrom(_from, _to, _value);\n  }\n\n  function transfer(address _to, uint256 _value) public returns (bool) {\n    return _transferFrom(_owner, _to, _value);\n  }\n\n  function convert(uint256 _value) public view returns (uint256) {\n    return _value * CONVERTION_RATIO;\n  }\n\n  function receivePayment() public payable returns (uint256) {\n    require(msg.value > 0);\n    uint256 rltAmount = convert(msg.value);\n    require(_balances[_owner] >= rltAmount);\n    _balances[_owner] -= rltAmount;\n    _balances[msg.sender] += rltAmount;\n    return rltAmount;\n  }\n\n  function bet(uint256 _value) public {\n    require(_balances[msg.sender] >= _value);\n    _bets[msg.sender] += _value;\n    _balances[msg.sender] -= _value;\n  } \n\n  function removeFunds() public restricted {\n    _owner.transfer(this.balance);\n  }\n\n}\n",
  "sourcePath": "/home/brice/ico-random-lottery-token/contracts/RandomLotteryToken.sol",
  "compiler": {
    "name": "solc",
    "version": "0.4.19+commit.c4cbbb05.Emscripten.clang"
  },
  "schemaVersion": "2.0.0",
  "updatedAt": "2018-03-07T20:44:36.369Z"
}