{
  "contractName": "RandomLotteryToken",
  "abi": [
    {
      "inputs": [
        {
          "name": "_initialSupply",
          "type": "uint256"
        }
      ],
      "payable": false,
      "stateMutability": "nonpayable",
      "type": "constructor"
    },
    {
      "payable": true,
      "stateMutability": "payable",
      "type": "fallback"
    },
    {
      "anonymous": false,
      "inputs": [
        {
          "indexed": true,
          "name": "from",
          "type": "address"
        },
        {
          "indexed": true,
          "name": "to",
          "type": "address"
        },
        {
          "indexed": false,
          "name": "value",
          "type": "uint256"
        },
        {
          "indexed": false,
          "name": "status",
          "type": "string"
        }
      ],
      "name": "Transfer",
      "type": "event"
    },
    {
      "constant": true,
      "inputs": [],
      "name": "owner",
      "outputs": [
        {
          "name": "",
          "type": "address"
        }
      ],
      "payable": false,
      "stateMutability": "view",
      "type": "function"
    },
    {
      "constant": true,
      "inputs": [],
      "name": "name",
      "outputs": [
        {
          "name": "",
          "type": "string"
        }
      ],
      "payable": false,
      "stateMutability": "view",
      "type": "function"
    },
    {
      "constant": true,
      "inputs": [],
      "name": "symbol",
      "outputs": [
        {
          "name": "",
          "type": "string"
        }
      ],
      "payable": false,
      "stateMutability": "view",
      "type": "function"
    },
    {
      "constant": true,
      "inputs": [],
      "name": "decimals",
      "outputs": [
        {
          "name": "",
          "type": "uint8"
        }
      ],
      "payable": false,
      "stateMutability": "view",
      "type": "function"
    },
    {
      "constant": true,
      "inputs": [],
      "name": "totalSupply",
      "outputs": [
        {
          "name": "",
          "type": "uint256"
        }
      ],
      "payable": false,
      "stateMutability": "view",
      "type": "function"
    },
    {
      "constant": true,
      "inputs": [
        {
          "name": "_addr",
          "type": "address"
        }
      ],
      "name": "balanceOf",
      "outputs": [
        {
          "name": "",
          "type": "uint256"
        }
      ],
      "payable": false,
      "stateMutability": "view",
      "type": "function"
    },
    {
      "constant": false,
      "inputs": [
        {
          "name": "_from",
          "type": "address"
        },
        {
          "name": "_to",
          "type": "address"
        },
        {
          "name": "_value",
          "type": "uint256"
        }
      ],
      "name": "transferFrom",
      "outputs": [
        {
          "name": "",
          "type": "bool"
        }
      ],
      "payable": false,
      "stateMutability": "nonpayable",
      "type": "function"
    },
    {
      "constant": false,
      "inputs": [
        {
          "name": "_to",
          "type": "address"
        },
        {
          "name": "_value",
          "type": "uint256"
        }
      ],
      "name": "transfer",
      "outputs": [
        {
          "name": "",
          "type": "bool"
        }
      ],
      "payable": false,
      "stateMutability": "nonpayable",
      "type": "function"
    },
    {
      "constant": false,
      "inputs": [],
      "name": "removeFunds",
      "outputs": [],
      "payable": false,
      "stateMutability": "nonpayable",
      "type": "function"
    }
  ],
  "bytecode": "0x60606040526040805190810160405280600781526020017f70656e64696e67000000000000000000000000000000000000000000000000008152506000908051906020019061004f929190610242565b506040805190810160405280600481526020017f646f6e65000000000000000000000000000000000000000000000000000000008152506001908051906020019061009b929190610242565b506040805190810160405280601481526020017f52616e646f6d204c6f747465727920546f6b656e000000000000000000000000815250600390805190602001906100e7929190610242565b506040805190810160405280600381526020017f524c54000000000000000000000000000000000000000000000000000000000081525060049080519060200190610133929190610242565b506012600560006101000a81548160ff021916908360ff160217905550341561015b57600080fd5b604051602080610d5c8339810160405280805190602001909190505033600260006101000a81548173ffffffffffffffffffffffffffffffffffffffff021916908373ffffffffffffffffffffffffffffffffffffffff1602179055508060076000600260009054906101000a900473ffffffffffffffffffffffffffffffffffffffff1673ffffffffffffffffffffffffffffffffffffffff1673ffffffffffffffffffffffffffffffffffffffff16815260200190815260200160002081905550600560009054906101000a900460ff1660ff16600a0a8102600681905550506102e7565b828054600181600116156101000203166002900490600052602060002090601f016020900481019282601f1061028357805160ff19168380011785556102b1565b828001600101855582156102b1579182015b828111156102b0578251825591602001919060010190610295565b5b5090506102be91906102c2565b5090565b6102e491905b808211156102e05760008160009055506001016102c8565b5090565b90565b610a66806102f66000396000f300606060405260043610610099576000357c0100000000000000000000000000000000000000000000000000000000900463ffffffff16806306fdde031461009b57806318160ddd1461012957806323b872dd14610152578063313ce567146101cb57806370a08231146101fa5780638da5cb5b1461024757806395d89b411461029c578063a9059cbb1461032a578063feac51f514610384575b005b34156100a657600080fd5b6100ae610399565b6040518080602001828103825283818151815260200191508051906020019080838360005b838110156100ee5780820151818401526020810190506100d3565b50505050905090810190601f16801561011b5780820380516001836020036101000a031916815260200191505b509250505060405180910390f35b341561013457600080fd5b61013c610441565b6040518082815260200191505060405180910390f35b341561015d57600080fd5b6101b1600480803573ffffffffffffffffffffffffffffffffffffffff1690602001909190803573ffffffffffffffffffffffffffffffffffffffff1690602001909190803590602001909190505061044b565b604051808215151515815260200191505060405180910390f35b34156101d657600080fd5b6101de6104b8565b604051808260ff1660ff16815260200191505060405180910390f35b341561020557600080fd5b610231600480803573ffffffffffffffffffffffffffffffffffffffff169060200190919050506104cf565b6040518082815260200191505060405180910390f35b341561025257600080fd5b61025a610518565b604051808273ffffffffffffffffffffffffffffffffffffffff1673ffffffffffffffffffffffffffffffffffffffff16815260200191505060405180910390f35b34156102a757600080fd5b6102af610542565b6040518080602001828103825283818151815260200191508051906020019080838360005b838110156102ef5780820151818401526020810190506102d4565b50505050905090810190601f16801561031c5780820380516001836020036101000a031916815260200191505b509250505060405180910390f35b341561033557600080fd5b61036a600480803573ffffffffffffffffffffffffffffffffffffffff169060200190919080359060200190919050506105ea565b604051808215151515815260200191505060405180910390f35b341561038f57600080fd5b610397610621565b005b6103a1610a26565b60038054600181600116156101000203166002900480601f0160208091040260200160405190810160405280929190818152602001828054600181600116156101000203166002900480156104375780601f1061040c57610100808354040283529160200191610437565b820191906000526020600020905b81548152906001019060200180831161041a57829003601f168201915b5050505050905090565b6000600654905090565b6000600260009054906101000a900473ffffffffffffffffffffffffffffffffffffffff1673ffffffffffffffffffffffffffffffffffffffff163373ffffffffffffffffffffffffffffffffffffffff1614156104b1576104ae8484846106f3565b90505b9392505050565b6000600560009054906101000a900460ff16905090565b6000600760008373ffffffffffffffffffffffffffffffffffffffff1673ffffffffffffffffffffffffffffffffffffffff168152602001908152602001600020549050919050565b6000600260009054906101000a900473ffffffffffffffffffffffffffffffffffffffff16905090565b61054a610a26565b60048054600181600116156101000203166002900480601f0160208091040260200160405190810160405280929190818152602001828054600181600116156101000203166002900480156105e05780601f106105b5576101008083540402835291602001916105e0565b820191906000526020600020905b8154815290600101906020018083116105c357829003601f168201915b5050505050905090565b6000610619600260009054906101000a900473ffffffffffffffffffffffffffffffffffffffff1684846106f3565b905092915050565b600260009054906101000a900473ffffffffffffffffffffffffffffffffffffffff1673ffffffffffffffffffffffffffffffffffffffff163373ffffffffffffffffffffffffffffffffffffffff1614156106f157600260009054906101000a900473ffffffffffffffffffffffffffffffffffffffff1673ffffffffffffffffffffffffffffffffffffffff166108fc3073ffffffffffffffffffffffffffffffffffffffff16319081150290604051600060405180830381858888f1935050505015156106f057600080fd5b5b565b60008273ffffffffffffffffffffffffffffffffffffffff168473ffffffffffffffffffffffffffffffffffffffff167fcd6e659e4c2e75c3bfe47fecaccf39aeb368116a0ee52afb532e07f6cba6c0d184600060405180838152602001806020018281038252838181546001816001161561010002031660029004815260200191508054600181600116156101000203166002900480156107d65780601f106107ab576101008083540402835291602001916107d6565b820191906000526020600020905b8154815290600101906020018083116107b957829003601f168201915b5050935050505060405180910390a360008373ffffffffffffffffffffffffffffffffffffffff161415801561083857508273ffffffffffffffffffffffffffffffffffffffff168473ffffffffffffffffffffffffffffffffffffffff1614155b151561084357600080fd5b81600760008673ffffffffffffffffffffffffffffffffffffffff1673ffffffffffffffffffffffffffffffffffffffff168152602001908152602001600020541015151561089157600080fd5b81600760008673ffffffffffffffffffffffffffffffffffffffff1673ffffffffffffffffffffffffffffffffffffffff1681526020019081526020016000206000828254039250508190555081600760008573ffffffffffffffffffffffffffffffffffffffff1673ffffffffffffffffffffffffffffffffffffffff168152602001908152602001600020600082825401925050819055508273ffffffffffffffffffffffffffffffffffffffff168473ffffffffffffffffffffffffffffffffffffffff167fcd6e659e4c2e75c3bfe47fecaccf39aeb368116a0ee52afb532e07f6cba6c0d18460016040518083815260200180602001828103825283818154600181600116156101000203166002900481526020019150805460018160011615610100020316600290048015610a0c5780601f106109e157610100808354040283529160200191610a0c565b820191906000526020600020905b8154815290600101906020018083116109ef57829003601f168201915b5050935050505060405180910390a3600190509392505050565b6020604051908101604052806000815250905600a165627a7a72305820233fcb4c0951842dcf7b3f18dff58f81a3bfca41277c868d78df679bf584241b0029",
  "source": "pragma solidity ^0.4.19;\n\ncontract RandomLotteryToken {\n\n  string internal TX_STATUS_PENDING = 'pending';\n  string internal TX_STATUS_DONE = 'done';\n\n  address _owner;\n\n  string _name = 'Random Lottery Token';\n  string _symbol = 'RLT';\n  uint8 _decimals = 18;\n\n  uint256 _totalSupply;\n\n  mapping (address => uint256) _balances;\n\n  event Transfer(\n    address indexed from,\n    address indexed to,\n    uint256 value,\n    string status\n  );\n\n  modifier restricted() {\n    if (msg.sender == _owner) _;\n  }\n\n  function RandomLotteryToken(uint256 _initialSupply) public {\n    _owner = msg.sender;\n    _balances[_owner] = _initialSupply;\n    _totalSupply = _initialSupply * (10 ** uint256(_decimals));\n  }\n\n  function owner() public constant returns (address) { return _owner; }\n  function name() public constant returns (string) { return _name; }\n  function symbol() public constant returns (string) { return _symbol; }\n  function decimals() public constant returns (uint8) { return _decimals; }\n  function totalSupply() public constant returns (uint256) { return _totalSupply; }\n  function balanceOf(address _addr) public constant returns (uint256) { return _balances[_addr]; }\n\n  function _transferFrom(address _from, address _to, uint256 _value) internal returns (bool) {\n    Transfer(_from, _to, _value, TX_STATUS_PENDING);\n    require(_to != 0x0 && _from != _to);\n    require(_balances[_from] >= _value);\n    _balances[_from] -= _value;\n    _balances[_to] += _value;\n    Transfer(_from, _to, _value, TX_STATUS_DONE);\n    return true;\n  }\n\n  function transferFrom(address _from, address _to, uint256 _value) public restricted returns (bool) {\n    return _transferFrom(_from, _to, _value);\n  }\n\n  function transfer(address _to, uint256 _value) public returns (bool) {\n    return _transferFrom(_owner, _to, _value);\n  }\n\n  function () public payable {}\n\n  function removeFunds() public restricted {\n    _owner.transfer(this.balance);\n  }\n\n}\n",
  "sourcePath": "/home/brice/ico-random-lottery-token/contracts/RandomLotteryToken.sol",
  "compiler": {
    "name": "solc",
    "version": "0.4.19+commit.c4cbbb05.Emscripten.clang"
  },
  "schemaVersion": "2.0.0",
  "updatedAt": "2018-03-07T17:41:48.364Z"
}